:020000040800F2
:1000000000000220990E0008E90E0008E90E000821
:10001000E90E0008E90E0008E90E000800000000E3
:10002000000000000000000000000000E90E0008D1
:10003000E90E000800000000E90E0008850900082C
:10004000E90E0008E90E0008E90E0008E90E0008B4
:10005000E90E0008E90E0008E90E0008E90E0008A4
:10006000E90E0008E90E0008E90E0008E90E000894
:10007000E90E0008E90E0008E90E0008E90E000884
:10008000E90E0008E90E0008E90E00080000000073
:10009000000000000000000000000000190A000835
:1000A000E90E0008E90E0008E90E0008E90E000854
:1000B000E90E0008E90E0008E90E0008E90E000844
:1000C000E90E0008E90E0008E90E0008E90E000834
:1000D000E90E0008E90E0008E90E00080000000023
:1000E00095090008E90E0008E90E0008000000006C
:1000F000000000000000000000000000E90E000801
:1001000000000000E90E0008E90E0008E90E0008F2
:1001100000000000000000000000000000000000DF
:10012000E90E0008E90E0008E90E0008E90E0008D3
:10013000E90E0008000000000000000000000000C0
:10014000000000000000000000000000E90E0008B0
:10015000E90E0008E90E0008E90E0008E90E0008A3
:10016000E90E0008E90E0008000000000000000091
:10017000000000000000000000000000000000007F
:1001800000000000E90E0008000000000000000070
:08019000E90E0008E90E000869
:1001A00001F0FF01102A2BDB10F0070F08D010F828
:1001B000013B013A8B422DD010F0070F42B3F6D12C
:1001C000F0B441EA012141EA014122F007047FF045
:1001D00000070023F0E80256083C85EA010586EA9C
:1001E000010685FA47F5A3FA87F586FA47F6A5FAD8
:1001F00087F68EB9EED1F0BC01F0FF0102F00702E4
:1002000032B110F8013B013A83EA010313B1F8D18E
:100210000020704701387047002D06BF354603386F
:10022000073815F0010F07D1013015F4807F02BFA8
:10023000013015F4C03F0130F0BC0138704700BFF9
:1002400081F0004102E000BF83F0004330B54FEA87
:1002500041044FEA430594EA050F08BF90EA020FF4
:100260001FBF54EA000C55EA020C7FEA645C7FEA87
:10027000655C00F0E2804FEA5454D4EB5555B8BFAA
:100280006D420CDD2C4480EA020281EA030382EA1B
:10029000000083EA010180EA020281EA0303362DAD
:1002A00088BF30BD11F0004F4FEA01314FF4801C80
:1002B0004CEA113102D0404261EB410113F0004F92
:1002C0004FEA03334CEA133302D0524263EB430349
:1002D00094EA050F00F0A780A4F10104D5F1200EE7
:1002E0000DDB02FA0EFC22FA05F2801841F1000142
:1002F00003FA0EF2801843FA05F359410EE0A5F116
:1003000020050EF1200E012A03FA0EFC28BF4CF046
:10031000020C43FA05F3C01851EBE37101F00045FC
:1003200007D54FF0000EDCF1000C7EEB00006EEB09
:100330000101B1F5801F1BD3B1F5001F0CD3490893
:100340005FEA30004FEA3C0C04F101044FEA4452EA
:1003500012F5800F80F09A80BCF1004F08BF5FEA71
:10036000500C50F1000041EB045141EA050130BD51
:100370005FEA4C0C404141EB0101013C28BFB1F563
:10038000801FE9D291F0000F04BF01460020B1FAAE
:1003900081F308BF2033A3F10B03B3F120020CDA81
:1003A0000C3208DD02F1140CC2F10C0201FA0CF05F
:1003B00021FA02F10CE002F11402D8BFC2F1200CC4
:1003C00001FA02F120FA0CFCDCBF41EA0C0190407A
:1003D000E41AA2BF01EB0451294330BD6FEA0404C3
:1003E0001F3C1CDA0C340EDC04F11404C4F12002AE
:1003F00020FA04F001FA02F340EA030021FA04F3C0
:1004000045EA030130BDC4F10C04C4F1200220FA16
:1004100002F001FA04F340EA0300294630BD21FA54
:1004200004F0294630BD94F0000F83F4801306BF1A
:1004300081F480110134013D4EE77FEA645C18BF0E
:100440007FEA655C29D094EA050F08BF90EA020FA5
:1004500005D054EA000C04BF1946104630BD91EA9D
:10046000030F1EBF0021002030BD5FEA545C05D1A0
:100470004000494128BF41F0004130BD14F58004DF
:100480003CBF01F5801130BD01F0004545F0FE4153
:1004900041F470014FF0000030BD7FEA645C1ABF88
:1004A000194610467FEA655C1CBF0B46024650EABF
:1004B000013406BF52EA033591EA030F41F40021EB
:1004C00030BD00BF90F0000F04BF0021704730B571
:1004D0004FF4806404F132044FF000054FF0000146
:1004E00050E700BF90F0000F04BF0021704730B507
:1004F0004FF4806404F1320410F0004548BF4042DC
:100500004FF000013EE700BF42004FEAE2014FEA30
:1005100031014FEA02701FBF12F07F4393F07F4F0B
:1005200081F06051704732F07F4208BF704793F00E
:100530007F4F04BF41F40021704730B54FF4607421
:1005400001F0004521F000411CE700BF50EA010224
:1005500008BF704730B54FF000050AE050EA0102CD
:1005600008BF704730B511F0004502D5404261EB3D
:1005700041014FF4806404F132045FEA915C3FF47E
:10058000D8AE4FF003025FEADC0C18BF03325FEA1B
:10059000DC0C18BF033202EBDC02C2F1200300FACC
:1005A00003FC20FA02F001FA03FE40EA0E0021FAF1
:1005B00002F11444BDE600BF0348044B834202D05D
:1005C000034B03B118477047500000205000002033
:1005D000000000000548064B1B1AD90F01EBA301D0
:1005E000491002D0034B03B1184770475000002058
:1005F000500000200000000010B5064C237843B9DD
:10060000FFF7DAFF044B13B10448AFF30080012376
:10061000237010BD500000200000000044180008A6
:1006200008B5054B1BB105490548AFF30080BDE88F
:100630000840FFF7CFBF00BF0000000054000020BB
:1006400044180008034AD2F8883043F47003C2F813
:100650008830704700ED00E010B503460C4A0D49A4
:100660000D48006840B10C4800680344521A934298
:1006700006D8094A136010BD0748084C0460F2E729
:1006800000F06AFC0C2303604FF0FF30F3E700BF7B
:1006900000000220000400006C000020F001002097
:1006A00008B500F0ABF800F041F800F09BF800F05E
:1006B00025F900F053F900F0EBFA18B9084800F0FA
:1006C000D3F9FEE7074800F0CFF900F019FB064820
:1006D00000F0CAF900F04AFB00F0B2FBFAE700BFF5
:1006E0005C1800086C1800087818000800B500F0C5
:1006F0000700C0F1070CBCF1040F28BF4FF0040C39
:10070000031D062B0FD9C31E4FF0FF3E0EFA0CF04F
:1007100021EA000199400EFA03FE22EA0E0241EAA4
:1007200002005DF804FB0023EEE700002B4A136B88
:1007300043F0020313632A4B1A6842F480121A60D2
:100740005A6822F480625A609A6842F480129A6071
:10075000DA6822F48012DA609A6942F080629A6163
:100760001A6842F480521A605A6822F040025A60B5
:100770009A6842F480529A60DA6822F48052DA6011
:100780009A6942F480029A611A6842F480621A609F
:100790005A6822F020025A609A6842F480629A6095
:1007A000DA6822F48062DA609A6942F400129A618F
:1007B0001A6842F480421A605A6822F080025A6035
:1007C0009A6842F480429A60DA6822F48042DA60E1
:1007D0009A6942F400029A61704700BF00380240F3
:1007E000000402404FF0E023034A5A6100229A615C
:1007F00007221A61704700BFFF7601002DE9F04122
:10080000394A136843F001031360374B1B6813F038
:10081000020FFAD0344B41F608025A601A6842F0CF
:1008200080721A60304B1B6813F0007FFAD02F4C97
:10083000236843F480532360A36843F48053A36088
:10084000DFF8B480D8F80C0000221146C0F3022073
:10085000FFF74CFF0001C0B2254D85F828034FF487
:1008600080766E60234F3B6923F00F0343F0020351
:100870003B61236833432360A3683343A360E36889
:1008800043F48053E360D8F80C0000221146C0F313
:100890000220FFF72BFF0001C0B285F817034FF4C9
:1008A00000032B607B6923F0F00343F020037B619E
:1008B000236843F400532360A36843F40053A36008
:1008C000E36843F40053E360D8F80C0000221146BB
:1008D000C0F30220FFF70AFF0001C0B285F8280329
:1008E0006E60BDE8F08100BF00380240003C01406E
:1008F00000E100E00038014000ED00E0164B1A6B0B
:1009000042F001021A635A6C42F001025A64A3F5E4
:1009100060531A6842F420221A605A6A42F01102A7
:100920005A62A3F5803305229A6240F2E732DA6216
:100930009A6942F4D04242F068029A611A6A42F01F
:1009400011021A625A6C42F400425A641A6842F068
:1009500001021A60704700BF00380240074A536C1A
:1009600043F480435364064B1A6942F002021A6151
:100970005A6942F002025A61704700BF00380240D3
:1009800000380140024A136801331360704700BF0A
:10099000780000201A4B5B6913F4805F15D0194B67
:1009A0001B6913F4805F0BD0174B1B6843B9174AC0
:1009B00013889BB201339BB21380134B01221A6040
:1009C0000F4A536943F4805353610D4B5B6913F431
:1009D000005F14D00B4B1B6913F4005F0AD00C4B63
:1009E0001B883BB90A4B64221A800A4A137883F0A9
:1009F00001031370024A536943F400535361704773
:100A0000003C0140000802407C00002084000020DF
:100A100072000020700000200B4B5B6913F4807F94
:100A200010D00A4B1B6843B9094A13889BB20133A3
:100A30009BB21380054B01221A60034A536943F4A9
:100A400080735361704700BF003C0140800000206C
:100A500086000020034B1B6813F0800FFAD0014B77
:100A6000586070470044004010B5044602E001346D
:100A7000FFF7F0FF20780028F9D110BD42F2107383
:100A800002680A4201D1013BFAD10BB10020704744
:100A90004FF0FF30704700001D4B1A6B42F002020E
:100AA0001A631A6C42F400121A64A3F550531A68C0
:100AB00022F470221A601A6842F420221A605A68DE
:100AC00042F440725A609A6842F470229A60DA687E
:100AD00022F47022DA60DA6842F4A022DA605A6AFC
:100AE00042F044025A62A3F5D8331A6842F4004235
:100AF0001A601A6822F400421A6030225A60F0220A
:100B0000DA6131221A621A6842F001021A607047F3
:100B10000038024008B5054A136843F48073136037
:100B200001210348FFF7AAFF08BD00BF00540040A1
:100B300014540040024A136843F400731360704772
:100B40000054004008B5074B186102210648FFF722
:100B500095FF18B9034B5A699B6908BD4FF0FF30E8
:100B6000FBE700BF005400401454004010B5044699
:100B700080210948FFF782FF38B9084B1C61042126
:100B80000548FFF77BFF18B910BD4FF0FF30FBE7BA
:100B90004FF0FF30F8E700BF14540040005400400D
:100BA00070B506460D46114A136843F4806313601E
:100BB000002409E040210E48FFF760FF98B90B4B75
:100BC0001B6933550134E4B2AC420AD26B1E9C421D
:100BD000F0D1064A136823F480631360FFF7AAFF7D
:100BE000E8E7002070BD4FF0FF30FBE70054004005
:100BF0001454004070B504460E461546FFF78AFFB0
:100C000098B9D020FFF79EFF90B92046FFF7AEFFBE
:100C100088B9FFF77FFF88B9D120FFF793FF80B92C
:100C200029463046FFF7BCFF70BD4FF0FF30FBE7B1
:100C30004FF0FF30F8E74FF0FF30F5E74FF0FF30AF
:100C4000F2E74FF0FF30EFE738B504460D46FFF707
:100C500061FF80B9D020FFF775FF78B92046FFF714
:100C600085FF70B92846FFF781FF044660B9FFF79A
:100C700061FF204638BD4FF0FF34FAE74FF0FF34F4
:100C8000F7E74FF0FF34F4E74FF0FF34F1E70000EF
:100C900000B583B0FFF700FF01220DF107017520B9
:100CA000FFF7A8FF9DF80730682B01D0982B1ED1C5
:100CB00000216B20FFF7C8FF00211920FFF7C4FFB8
:100CC00001211A20FFF7C0FF00211B20FFF7BCFF06
:100CD00000211C20FFF7B8FF064B1A68064B1A606C
:100CE000064B00221A60012003B05DF804FB0020CF
:100CF000FAE700BF740000208C0000209400002060
:100D000010B52DED028B82B000249FED148A16E001
:100D1000022201A94720FFF76DFF9DF804301B0256
:100D20001BB29DF80520134307EE903AF8EEE77AE0
:100D3000DFED0B6A87EEA67A38EE078A0134B4F548
:100D40007A7FE5DB9FED077AC8EE077A064BC3EDA5
:100D5000007A02B0BDEC028B10BD00BF00000000A5
:100D60000000034300007A449000002000B52DED00
:100D7000028B83B0294B1968294A1368CB1A07EEF6
:100D8000903AF8EE677A9FED277A87EE878A1160AE
:100D9000022201A94720FFF72DFF9DF804301B0216
:100DA0001BB29DF80520134307EE903AF8EEE77A60
:100DB000DFED1D6A87EEA67A1C4BD3ED007A37EE85
:100DC000677A1B4B83ED017AD3ED007A28EE078A10
:100DD00077EE887AC3ED007A9FED167AF4EEC77A43
:100DE000F1EE10FA05DD9FED147A77EEC77AC3EDC8
:100DF000007A0F4BD3ED007A9FED107AF4EEC77AAC
:100E0000F1EE10FA05D59FED0C7A77EE877AC3EDF7
:100E1000007A03B0BDEC028B5DF804FB7400002087
:100E20008C00002000007A44000003439000002062
:100E300094000020000034430000B443000034C399
:100E4000114B1A68114B1B68D31AB3F5FA7F00D205
:100E5000704710B5A4B00D4B1A600D4B1C68586854
:100E6000FFF752FBCDE902012046FFF74DFBCDE92C
:100E70000001084A802104A800F038F804A8FFF710
:100E8000F3FD24B010BD00BF7400002088000020D6
:100E9000940000208C180008DFF834D00D480E496B
:100EA0000E4A002302E0D458C4500433C4188C42C4
:100EB000F9D30B4A0B4C002301E013600432A24229
:100EC000FBD3FFF7BFFB00F04DF8FFF7E9FB7047DE
:100ED000000002200000002050000020F41800084C
:100EE00050000020F0010020FEE700000CB430B5F7
:100EF000184B0C1E1D689DB008DA8B232B604FF039
:100F0000FF301DB0BDE8304002B070474FF40273AF
:100F1000ADF814304FF000031B9314BF04F1FF33FE
:100F20002346049307934FF6FF7302900690ADF8A3
:100F30001630209A21AB02A92846019300F08CF9C3
:100F4000431CBCBF8B232B60002CDAD0029B0022F9
:100F50001A70D6E700000020014B1868704700BFE8
:100F60000000002070B50D4D0D4C641BA410002630
:100F7000A64209D10B4D0C4C00F064FC641BA4107C
:100F80000026A64205D170BD55F8043B98470136AE
:100F9000EEE755F8043B98470136F2E7EC180008F5
:100FA000EC180008EC180008F018000870477047AB
:100FB00038B50546002941D051F8043C0C1F002BE0
:100FC000B8BFE41800F0E0F81D4A136833B9636055
:100FD00014602846BDE8384000F0DCB8A34208D9C8
:100FE000206821188B4201BF19685B6809182160CD
:100FF000EDE71A465B680BB1A342FAD911685018A5
:10100000A0420BD120680144501883421160E0D106
:1010100018685B68536008441060DAE702D90C2353
:101020002B60D6E7206821188B4204BF19685B68E3
:10103000636004BF091821605460CAE738BD00BF6F
:10104000EC01002070B50F4E0C463168054611B911
:1010500000F0A4FB30602146284600F09FFB431CB3
:1010600003D14FF0FF34204670BDC41C24F00304AC
:10107000A042F8D0211A284600F090FB0130F2D1AE
:10108000EFE700BFE80100202DE9F843CD1C25F073
:10109000030508350C2D38BF0C25002D064601DB55
:1010A000A94204D90C2333600020BDE8F883DFF89F
:1010B000D48000F069F8D8F800301C4644BB2946BB
:1010C0003046FFF7BFFF431C044658D1D8F8004014
:1010D0002746002F43D1002C4BD023683946304699
:1010E00004EB030900F05AFB814542D121686D1AD7
:1010F00029463046FFF7A6FF01303AD023682B443B
:101100002360D8F800305A6862BBC8F800700FE05E
:101110002268521B20D40B2A17D96119A3422560DB
:1011200018BF5960636808BFC8F8001062514B606F
:10113000304600F02FF804F10B00231D20F00700CB
:10114000C21A1CBF1B1AA350AFE76268A3420CBFB0
:10115000C8F800205A60EBE723466468AEE73C46D7
:101160007F68B6E71A465B68A342FBD10023536051
:10117000DEE70C233360304600F00CF894E705609E
:10118000D6E700BFEC0100200148FFF70FBF00BF0A
:10119000E40100200148FFF70ABF00BFE40100207E
:1011A0002DE9F0478E681F46BE420B6882460C460A
:1011B00090462DD8B1F90C2012F4906F26D06569B5
:1011C000096905EB4505A3EB010905EBD5757B1C0A
:1011D0004B446D109D4238BF1D46530527D5294607
:1011E000FFF752FF064660B321694A4600F0E6FA6F
:1011F000A38923F4906343F08003A3812661656192
:101200004E44A5EB09052660A5603E46BE4200D9C6
:101210003E4620683246414600F0A6FAA3689B1B72
:10122000A3602368334423600020BDE8F0872A468A
:1012300000F0D2FA06460028E0D121695046FFF7B7
:10124000B7FE0C23CAF80030A38943F04003A38102
:101250004FF0FF30E9E700002DE9F04F98468B8909
:101260001B069DB007460D46144610D50B6973B991
:101270004021FFF709FF2860286130B90C233B604B
:101280004FF0FF301DB0BDE8F08F40236B610023AD
:10129000099320238DF82930CDF80C803023DFF816
:1012A0009C818DF82A304FF0010923469A4613F8A5
:1012B000012B0AB1252AF9D1BAEB040B0BD05B46FE
:1012C000224629463846FFF76BFF013000F0A78021
:1012D000099A5A4409929AF80030002B00F09F8036
:1012E00000234FF0FF32CDE905230AF1010A0493F0
:1012F00007938DF853301A935446052214F8011BB6
:101300004E48FEF74DFF049AD8B9D00644BF2023BB
:101310008DF85330110744BF2B238DF853309AF8C2
:1013200000302A2B15D0079A544600204FF00A0CA3
:10133000214611F8013B303B092B4BD9B0B1079244
:1013400014E0A0EB080309FA03F313430493A24645
:10135000D2E7039B191D1B680391002BBBBF5B42A7
:1013600042F0020207930793B8BF049223782E2B12
:101370000AD163782A2B32D1039B1A1D1B68039272
:1013800043EAE37302340593DFF8C0A02178032217
:101390005046FEF705FF38B1049BA0EB0A0040223F
:1013A000824013430134049314F8011B24488DF840
:1013B00028100622FEF7F4FE002836D0214B1BBB76
:1013C000039B073323F0070308330393099B33443C
:1013D00009936AE70CFB02320C460120A8E70023C0
:1013E0000134059319464FF00A0C204610F8012BE2
:1013F000303A092A03D9002BC6D00591C4E70CFB6B
:10140000012104460123F0E703AB00932A460E4B6B
:1014100004A93846AFF30080421C0646D6D1AB89FA
:101420005B063FF52DAF09982CE703AB00932A46E6
:10143000054B04A9384600F079F8EDE7B11800082B
:10144000BB18000800000000A1110008B718000830
:101450002DE9F047164698468A680B69DDF820901A
:101460009342B8BF1346336091F8432007460C46B9
:101470000AB1013333602368990642BF33680233EF
:101480003360256815F0060506D104F1190AE368F2
:1014900032689B1AAB4226DC94F843302268003B4A
:1014A00018BF012392062BD404F14302414638466B
:1014B000C84701301ED02368226903F00603042BBD
:1014C00002BFE5683368ED1AA3680CBF25EAE5752D
:1014D00000259342C4BF9B1AED1800261A34B5426A
:1014E0001AD1002008E00123524641463846C84739
:1014F000013003D14FF0FF30BDE8F0870135C6E77A
:10150000E1185A1C302081F84300224494F8451019
:1015100082F843100233C7E701232246414638468A
:10152000C8470130E6D00136D9E700002DE9FF4772
:101530000F7E0C9E782F914680460C469A4601F10C
:10154000430207D8622F0AD8002F00F0D180582F0D
:1015500000F0B88004F1420684F842703AE0A7F146
:101560006303152BF6D801A151F823F0C515000827
:10157000D91500085515000855150008551500081F
:1015800055150008D915000855150008551500080F
:101590005515000855150008D71600080316000851
:1015A000911600085515000855150008F916000891
:1015B00055150008031600085515000855150008B4
:1015C0009916000833681A1D1B68326004F1420640
:1015D00084F8423001239CE033682068191D316093
:1015E000060601D51D6803E04506FBD5B3F900509A
:1015F000002D03DA2D236D4284F8433058480A2326
:1016000011E021683368080653F8045B02D44906E8
:1016100048BFADB26F2F5248336014BF0A2308236E
:10162000002184F843106668A660002E05DB21685F
:101630002E4321F0040121604BD01646B5FBF3F197
:1016400003FB1157C75D06F8017D2F46BB420D46CF
:10165000F4D9082B0BD12368DF0708D5236961680B
:101660009942DEBF302306F8013C06F1FF36921B9B
:101670002261CDF800A04B4603AA21464046FFF761
:10168000E7FE01304AD14FF0FF3004B0BDE8F087EB
:10169000236843F0200323603248782784F845709C
:1016A000236831681F0651F8045B02D45F0648BF07
:1016B000ADB23160D90744BF43F0200323601DB1B0
:1016C0001023ADE72648E9E7236823F020032360D1
:1016D000F6E71646BDE7336825686169181D306076
:1016E0002E061B6801D5196002E06806FBD519803B
:1016F000002323611646BCE733681A1D32601E685A
:10170000626800213046FEF74BFD08B1801B606027
:1017100063682361002384F84330AAE723693246D3
:1017200049464046D0470130ADD023689B0713D4CB
:10173000E068039B9842B8BF1846A6E701233246EB
:1017400049464046D04701309DD00135E3680399B2
:101750005B1AAB42F2DCEBE7002504F11906F5E772
:10176000C2180008D3180008884210B501EB020423
:1017700002D98442234607D8431EA14208D011F85B
:10178000012B03F8012FF8E7024401468A4200D1F9
:1017900010BD13F8014D02F8014DF7E738B5064DBD
:1017A0000023044608462B60FEF756FF431C02D177
:1017B0002B6803B1236038BDE00100200A44914248
:1017C00000F1FF3300D1704710B511F8014B03F859
:1017D000014F9142F9D110BD2DE9F0410746144661
:1017E0000D4621B9BDE8F0411146FFF74DBC2AB9BD
:1017F000FFF7DEFB25462846BDE8F08100F01AF829
:101800008442064602D8B4EB500FF4D8214638463D
:10181000FFF73AFC804608B94546ECE7B442224659
:10182000294628BF3246FFF7C9FF29463846FFF749
:10183000BFFBF1E751F8043C181F002BBCBF0B584D
:10184000C0187047F8B500BFF8BC08BC9E4670478A
:0C185000F8B500BFF8BC08BC9E4670470D
:10185C004D5055204E4F5420464F554E440D0A00C6
:10186C004D5055204F4B0D0A000000004D50552097
:10187C0043414C494252415445440D0A000000007A
:10188C005961773A2025372E326620646567207CB3
:10189C0020526174653A2025372E326620646567C4
:1018AC002F730D0A00232D302B2000686C4C006523
:1018BC006667454647003031323334353637383970
:1018CC0041424344454600303132333435363738A3
:0818DC00396162636465660076
:0818E400BCE8FF7F01000000D9
:0418EC0021060008C9
:0418F000F9050008EE
:1018F4000400002000000000A800002010010020C7
:10190400780100200000000000000000000000003A
:1019140000000000000000000000000000000000C3
:1019240000000000000000000000000000000000B3
:1019340000000000000000000000000000000000A3
:0400000508000E9948
:00000001FF
