:020000040800F2
:1000000000000220350F0008850F0008850F00084A
:10001000850F0008850F0008850F0008000000000C
:10002000000000000000000000000000850F000834
:10003000850F000800000000850F0008750A000801
:10004000850F0008850F0008850F0008850F000840
:10005000850F0008850F0008850F0008850F000830
:10006000850F0008850F0008850F0008850F000820
:10007000850F0008850F0008850F0008850F000810
:10008000850F0008850F0008850F0008000000009C
:10009000000000000000000000000000090B000844
:1000A000850F0008850F0008850F0008850F0008E0
:1000B000850F0008850F0008850F0008850F0008D0
:1000C000850F0008850F0008850F0008850F0008C0
:1000D000850F0008850F0008850F0008000000004C
:1000E000850A0008850F0008850F00080000000041
:1000F000000000000000000000000000850F000864
:1001000000000000850F0008850F0008850F00081B
:1001100000000000000000000000000000000000DF
:10012000850F0008850F0008850F0008850F00085F
:10013000850F000800000000000000000000000023
:10014000000000000000000000000000850F000813
:10015000850F0008850F0008850F0008850F00082F
:10016000850F0008850F0008000000000000000057
:10017000000000000000000000000000000000007F
:1001800000000000850F00080000000000000000D3
:08019000850F0008850F00082F
:1001A00001F0FF01102A2BDB10F0070F08D010F828
:1001B000013B013A8B422DD010F0070F42B3F6D12C
:1001C000F0B441EA012141EA014122F007047FF045
:1001D00000070023F0E80256083C85EA010586EA9C
:1001E000010685FA47F5A3FA87F586FA47F6A5FAD8
:1001F00087F68EB9EED1F0BC01F0FF0102F00702E4
:1002000032B110F8013B013A83EA010313B1F8D18E
:100210000020704701387047002D06BF354603386F
:10022000073815F0010F07D1013015F4807F02BFA8
:10023000013015F4C03F0130F0BC0138704700BFF9
:1002400081F0004102E000BF83F0004330B54FEA87
:1002500041044FEA430594EA050F08BF90EA020FF4
:100260001FBF54EA000C55EA020C7FEA645C7FEA87
:10027000655C00F0E2804FEA5454D4EB5555B8BFAA
:100280006D420CDD2C4480EA020281EA030382EA1B
:10029000000083EA010180EA020281EA0303362DAD
:1002A00088BF30BD11F0004F4FEA01314FF4801C80
:1002B0004CEA113102D0404261EB410113F0004F92
:1002C0004FEA03334CEA133302D0524263EB430349
:1002D00094EA050F00F0A780A4F10104D5F1200EE7
:1002E0000DDB02FA0EFC22FA05F2801841F1000142
:1002F00003FA0EF2801843FA05F359410EE0A5F116
:1003000020050EF1200E012A03FA0EFC28BF4CF046
:10031000020C43FA05F3C01851EBE37101F00045FC
:1003200007D54FF0000EDCF1000C7EEB00006EEB09
:100330000101B1F5801F1BD3B1F5001F0CD3490893
:100340005FEA30004FEA3C0C04F101044FEA4452EA
:1003500012F5800F80F09A80BCF1004F08BF5FEA71
:10036000500C50F1000041EB045141EA050130BD51
:100370005FEA4C0C404141EB0101013C28BFB1F563
:10038000801FE9D291F0000F04BF01460020B1FAAE
:1003900081F308BF2033A3F10B03B3F120020CDA81
:1003A0000C3208DD02F1140CC2F10C0201FA0CF05F
:1003B00021FA02F10CE002F11402D8BFC2F1200CC4
:1003C00001FA02F120FA0CFCDCBF41EA0C0190407A
:1003D000E41AA2BF01EB0451294330BD6FEA0404C3
:1003E0001F3C1CDA0C340EDC04F11404C4F12002AE
:1003F00020FA04F001FA02F340EA030021FA04F3C0
:1004000045EA030130BDC4F10C04C4F1200220FA16
:1004100002F001FA04F340EA0300294630BD21FA54
:1004200004F0294630BD94F0000F83F4801306BF1A
:1004300081F480110134013D4EE77FEA645C18BF0E
:100440007FEA655C29D094EA050F08BF90EA020FA5
:1004500005D054EA000C04BF1946104630BD91EA9D
:10046000030F1EBF0021002030BD5FEA545C05D1A0
:100470004000494128BF41F0004130BD14F58004DF
:100480003CBF01F5801130BD01F0004545F0FE4153
:1004900041F470014FF0000030BD7FEA645C1ABF88
:1004A000194610467FEA655C1CBF0B46024650EABF
:1004B000013406BF52EA033591EA030F41F40021EB
:1004C00030BD00BF90F0000F04BF0021704730B571
:1004D0004FF4806404F132044FF000054FF0000146
:1004E00050E700BF90F0000F04BF0021704730B507
:1004F0004FF4806404F1320410F0004548BF4042DC
:100500004FF000013EE700BF42004FEAE2014FEA30
:1005100031014FEA02701FBF12F07F4393F07F4F0B
:1005200081F06051704732F07F4208BF704793F00E
:100530007F4F04BF41F40021704730B54FF4607421
:1005400001F0004521F000411CE700BF50EA010224
:1005500008BF704730B54FF000050AE050EA0102CD
:1005600008BF704730B511F0004502D5404261EB3D
:1005700041014FF4806404F132045FEA915C3FF47E
:10058000D8AE4FF003025FEADC0C18BF03325FEA1B
:10059000DC0C18BF033202EBDC02C2F1200300FACC
:1005A00003FC20FA02F001FA03FE40EA0E0021FAF1
:1005B00002F11444BDE600BF0348044B834202D05D
:1005C000034B03B118477047500000205000002033
:1005D000000000000548064B1B1AD90F01EBA301D0
:1005E000491002D0034B03B1184770475000002058
:1005F000500000200000000010B5064C237843B9DD
:10060000FFF7DAFF044B13B10448AFF30080012376
:10061000237010BD5000002000000000B818000832
:1006200008B5054B1BB105490548AFF30080BDE88F
:100630000840FFF7CFBF00BF0000000054000020BB
:10064000B8180008034AD2F8883043F47003C2F89F
:100650008830704700ED00E010B503460C4A0D49A4
:100660000D48006840B10C4800680344521A934298
:1006700006D8094A136010BD0748084C0460F2E729
:1006800000F0A4FC0C2303604FF0FF30F3E700BF41
:1006900000000220000400006C0000200002002086
:1006A00008B500F0AFF800F02DF800F087F800F082
:1006B00019F900F06BF900F04BFA00F04FFB00F075
:1006C000FBFBFAE700B500F00700C0F1070CBCF136
:1006D000040F28BF4FF0040C031D062B0FD9C31EB7
:1006E0004FF0FF3E0EFA0CF021EA000199400EFA9D
:1006F00003FE22EA0E0241EA02005DF804FB002339
:10070000EEE700002B4A136B43F0020313632A4BFE
:100710001A6842F480121A605A6822F480625A60A1
:100720009A6842F480129A60DA6822F48012DA60E1
:100730009A6942F080629A611A6842F480521A60A3
:100740005A6822F040025A609A6842F480529A60D5
:10075000DA6822F48052DA609A6942F480029A617F
:100760001A6842F480621A605A6822F020025A60C5
:100770009A6842F480629A60DA6822F48062DA60F1
:100780009A6942F400129A611A6842F480421A602F
:100790005A6822F080025A609A6842F480429A6055
:1007A000DA6822F48042DA609A6942F400029A61BF
:1007B000704700BF00380240000402404FF0E023C1
:1007C0001A6922F001021A611A6942F002021A61E2
:1007D0001A6942F004021A615A6902F07F4242F437
:1007E000BB3242F0FF025A619A6902F07F4242F442
:1007F000BB3242F0FF029A611A6942F001021A61AB
:1008000070470000354A136823F0F80343F0800373
:10081000136000239360314B9B6813F00C0FFAD1E7
:100820002E4A136823F0807313602C4B1B6813F05F
:10083000007FFAD1294A136823F410231360274B51
:100840001B6813F4003FFAD1244B1A6822F480226B
:100850001A601A6842F001021A60204B1B6813F0FC
:10086000020FFAD01D4B00225A605A685A605A682B
:1008700042F008025A605A6842F4C0525A605A68FC
:1008800022F480325A605A6842F080625A609A6854
:1008900042F002029A609A689A609A6842F4805222
:1008A0009A609A689A609A6822F040429A609A68C0
:1008B00022F040429A609A6842F040529A60084999
:1008C0000A6842F003020A601A6842F080721A60F5
:1008D000024B1B6813F0007FFAD0704700380240CB
:1008E000003C0240264B1A6B42F001021A635A6C1C
:1008F00042F001025A64234A136823F4702343F43C
:1009000020231360536A23F0FF0343F01103536263
:100910001D4B1A6822F001021A609A6A6FF30F02E7
:1009200042F005029A62DA6A40F2E732DA621A6845
:1009300042F080021A609A6922F0780242F068025E
:100940009A619A6922F4F04242F4D0429A615A6C58
:1009500042F400425A641A6A42F011021A625A6B57
:100960006FF30F025A639A6B6FF30F029A635A691F
:1009700042F001025A611A6842F001021A6070479F
:100980000038024000000240000001402DE9F04123
:10099000334A536C43F480435364324E736923F0FB
:1009A0000F0343F0020373612F4C236843F4805319
:1009B0002360A36843F48053A360DFF8B480D8F8C1
:1009C0000C0000221146C0F30220FFF77BFE00015D
:1009D000C0B2264D85F828034FF480776F603369E5
:1009E00023F00F0343F00203336123683B4323608A
:1009F000A3683B43A360E36843F48053E360D8F803
:100A00000C0000221146C0F30220FFF75BFE00013C
:100A1000C0B285F817034FF400032B60736923F00D
:100A2000F00343F020037361236843F40053236011
:100A3000A36843F40053A360E36843F40053E36006
:100A4000D8F80C0000221146C0F30220FFF73AFE4E
:100A50000001C0B285F828036F60BDE8F08100BFD7
:100A60000038024000380140003C014000E100E055
:100A700000ED00E0024A136801331360704700BFC5
:100A8000780000201A4B5B6913F4805F15D0194B76
:100A90001B6913F4805F0BD0174B1B6843B9174ACF
:100AA00013889BB201339BB21380134B01221A604F
:100AB0000F4A536943F4805353610D4B5B6913F440
:100AC000005F14D00B4B1B6913F4005F0AD00C4B72
:100AD0001B883BB90A4B64221A800A4A137883F0B8
:100AE00001031370024A536943F400535361704782
:100AF000003C0140000802407C00002084000020EF
:100B000072000020700000200B4B5B6913F4807FA3
:100B100010D00A4B1B6843B9094A13889BB20133B2
:100B20009BB21380054B01221A60034A536943F4B8
:100B300080735361704700BF003C0140800000207B
:100B400086000020014B1868704700BF7400002029
:100B5000114B1A6B42F001021A631A6C42F4003214
:100B60001A64A3F560531A6822F030021A601A68FA
:100B700042F020021A601A6A22F470621A621A6A3B
:100B800042F4E0621A62A3F5DE3340F2A1129A60E9
:100B900042F20C02DA60704700380240034B1B68D7
:100BA00013F0800FFAD0014B5860704700440040AA
:100BB00042F2107302680A4205D15A1E13B100BFF7
:100BC0001346F7E713460BB1002070474FF0FF3094
:100BD0007047000008B5054A136843F4807313603A
:100BE00001210348FFF7E4FF08BD00BF00540040A7
:100BF00014540040034A136843F400731360002048
:100C0000704700BF0054004000B583B0094B186125
:100C100002210948FFF7CCFF40B9064A536992699F
:100C200013430193019B03B05DF804FB4FF0FF30C9
:100C3000F9E700BF005400401454004010B50446CA
:100C400080210948FFF7B4FF38B9084B1C61042123
:100C50000548FFF7ADFF18B910BD4FF0FF30FBE7B7
:100C60004FF0FF30F8E700BF14540040005400403C
:100C7000F8B504460E461546FFF7ACFF00285FD1D5
:100C8000D020FFF7C1FFA8B92046FFF7D7FFB0B9C2
:100C9000FFF7A0FF002856D1012D15D02D4A13686B
:100CA00043F480631360D120FFF7AEFF074658BBC3
:100CB000002438E0FFF79EFF4FF0FF3718E0FFF702
:100CC00099FF4FF0FF3713E0224A136823F4806343
:100CD0001360D120FFF798FF60B940211E48FFF74D
:100CE00067FF074658B91B4B1B693370FFF782FF3C
:100CF0003846F8BDFFF77EFF4FF0FF37F8E7FFF704
:100D000079FF4FF0FF37F3E7FFF774FF4FF0FF373E
:100D1000EEE740211048FFF74BFFB8B90D4B1B69B8
:100D200033550134E4B2AC42E2D26B1E9C42F0D1A6
:100D3000084A136823F480631360FFF75BFFE8E75A
:100D40004FF0FF37D4E74FF0FF37D1E74FF0FF37D1
:100D5000CEE700BF005400401454004010B582B0EC
:100D6000022201A94720FFF783FF9DF804301B02F0
:100D70001BB29DF80520134307EE903AF8EEE77A90
:100D8000DFED3F6A87EEA67A3E4BD3ED007A77EE31
:100D9000677A3D48C0ED027A3C4C22783C4901EB31
:100DA0008203C3ED007A01323A4B83FB02C303EBAB
:100DB0004303D31A237091ED007AD1ED017A37EE17
:100DC000277AD1ED027A37EE277AF0EE086AC7EE7D
:100DD000267A314BC3ED007AF1EE677AC3ED007AE3
:100DE000C0ED017AFFF7AEFE2C4B1B68C31A07EE6D
:100DF000903AB8EE677ADFED2A6AC7EE267A9FED61
:100E0000297AF4EEC77AF1EE10FA07DCF5EEC07A33
:100E1000F1EE10FA04D8214B186020E0DFED217AC2
:100E20001D4B93ED007A67EE877A1F4B93ED007AA6
:100E300077EE877AC3ED007A9FED1C7AF4EEC77ADD
:100E4000F1EE10FA0DDD9FED1A7A77EEC77AC3ED59
:100E5000007A154B1A680C4B1A60104B186002B0E0
:100E600010BD9FED147AF4EEC77AF1EE10FAF0D5CA
:100E70009FED0F7A77EE877A0B4BC3ED007AE8E7A8
:100E800000000343A8000020AC00002098000020D0
:100E90008C00002056555555A40000209C000020D1
:100EA00000007A44CDCCCC3DA000002000003443AB
:100EB0000000B443000034C370B598B0FFF742FEA1
:100EC000184B1B68C01AB0F57A7F01D818B070BDF6
:100ED000FFF738FE134B1860134B5E681868FFF776
:100EE00013FB04460D46114B1868FFF70DFBCDE9C7
:100EF00002013046FFF708FBCDE9000122462B46F0
:100F00000B4904A800F040F8002402E0FFF746FE79
:100F1000013404F160036B4413F8500C0028F5D140
:100F2000D4E700BF88000020AC000020A80000200B
:100F3000D0180008DFF834D00D480E490E4A0023BF
:100F400002E0D458C4500433C4188C42F9D30B4A7D
:100F50000B4C002301E013600432A242FBD3FFF7E5
:100F600071FB00F039F8FFF79BFB7047000002208F
:100F7000000000205000002044190008500000200C
:100F800000020020FEE700000EB410B59DB01FABBC
:100F9000029006906FF000410A48079104910A49B7
:100FA00053F8042B0591002402A9006801931B94B7
:100FB00000F08CF9029B1C701DB0BDE8104003B01E
:100FC000704700BF000000200802FFFF014B1868B7
:100FD000704700BF0000002070B50D4D0D4C641B24
:100FE000A4100026A64209D10B4D0C4C00F064FC65
:100FF000641BA4100026A64205D170BD55F8043B21
:1010000098470136EEE755F8043B98470136F2E77A
:101010003C1900083C1900083C1900084019000858
:101020007047704738B50546002941D051F8043C57
:101030000C1F002BB8BFE41800F0E0F81D4A13683D
:1010400033B9636014602846BDE8384000F0DCB86E
:10105000A34208D9206821188B4201BF19685B6838
:1010600009182160EDE71A465B680BB1A342FAD973
:1010700011685018A0420BD12068014450188342D7
:101080001160E0D118685B68536008441060DAE7CB
:1010900002D90C232B60D6E7206821188B4204BFAD
:1010A00019685B68636004BF091821605460CAE76F
:1010B00038BD00BFFC01002070B50F4E0C463168F2
:1010C000054611B900F0A4FB30602146284600F027
:1010D0009FFB431C03D14FF0FF34204670BDC41C5E
:1010E00024F00304A042F8D0211A284600F090FB17
:1010F0000130F2D1EFE700BFF80100202DE9F843FD
:10110000CD1C25F0030508350C2D38BF0C25002D0E
:10111000064601DBA94204D90C2333600020BDE858
:10112000F883DFF8D48000F069F8D8F800301C4666
:1011300044BB29463046FFF7BFFF431C044658D145
:10114000D8F800402746002F43D1002C4BD023680D
:101150003946304604EB030900F05AFB814542D181
:1011600021686D1A29463046FFF7A6FF01303AD0B4
:1011700023682B442360D8F800305A6862BBC8F853
:1011800000700FE02268521B20D40B2A17D9611976
:10119000A342256018BF5960636808BFC8F80010F3
:1011A00062514B60304600F02FF804F10B00231D14
:1011B00020F00700C21A1CBF1B1AA350AFE76268D9
:1011C000A3420CBFC8F800205A60EBE723466468CE
:1011D000AEE73C467F68B6E71A465B68A342FBD1A0
:1011E00000235360DEE70C233360304600F00CF838
:1011F00094E70560D6E700BFFC0100200148FFF737
:101200000FBF00BFF40100200148FFF70ABF00BF75
:10121000F40100202DE9F0478E681F46BE420B689E
:1012200082460C4690462DD8B1F90C2012F4906FEE
:1012300026D06569096905EB4505A3EB010905EBB6
:10124000D5757B1C4B446D109D4238BF1D46530520
:1012500027D52946FFF752FF064660B321694A4663
:1012600000F0E6FAA38923F4906343F08003A3819E
:10127000266165614E44A5EB09052660A5603E46E2
:10128000BE4200D93E4620683246414600F0A6FAEA
:10129000A3689B1BA3602368334423600020BDE840
:1012A000F0872A4600F0D2FA06460028E0D12169EC
:1012B0005046FFF7B7FE0C23CAF80030A38943F06D
:1012C0004003A3814FF0FF30E9E700002DE9F04F24
:1012D00098468B891B069DB007460D46144610D5CF
:1012E0000B6973B94021FFF709FF2860286130B905
:1012F0000C233B604FF0FF301DB0BDE8F08F402362
:101300006B610023099320238DF82930CDF80C80E0
:101310003023DFF89C818DF82A304FF001092346F5
:101320009A4613F8012B0AB1252AF9D1BAEB040B1E
:101330000BD05B46224629463846FFF76BFF01304B
:1013400000F0A780099A5A4409929AF80030002BBD
:1013500000F09F8000234FF0FF32CDE905230AF112
:10136000010A049307938DF853301A9354460522CB
:1013700014F8011B4E48FEF713FF049AD8B9D006A3
:1013800044BF20238DF85330110744BF2B238DF821
:1013900053309AF800302A2B15D0079A5446002073
:1013A0004FF00A0C214611F8013B303B092B4BD979
:1013B000B0B1079214E0A0EB080309FA03F313435A
:1013C0000493A246D2E7039B191D1B680391002BCF
:1013D000BBBF5B4242F0020207930793B8BF04927F
:1013E00023782E2B0AD163782A2B32D1039B1A1D26
:1013F0001B68039243EAE37302340593DFF8C0A04D
:10140000217803225046FEF7CBFE38B1049BA0EBB7
:101410000A004022824013430134049314F8011B54
:1014200024488DF828100622FEF7BAFE002836D090
:10143000214B1BBB039B073323F0070308330393A4
:10144000099B334409936AE70CFB02320C460120E6
:10145000A8E700230134059319464FF00A0C2046F3
:1014600010F8012B303A092A03D9002BC6D0059178
:10147000C4E70CFB012104460123F0E703AB009312
:101480002A460E4B04A93846AFF30080421C06469C
:10149000D6D1AB895B063FF52DAF09982CE703AB9E
:1014A00000932A46054B04A9384600F079F8EDE789
:1014B000011900080B1900080000000015120008AF
:1014C000071900082DE9F047164698468A680B6907
:1014D000DDF820909342B8BF1346336091F8432063
:1014E00007460C460AB1013333602368990642BFB0
:1014F000336802333360256815F0060506D104F120
:10150000190AE36832689B1AAB4226DC94F8433030
:101510002268003B18BF012392062BD404F143023A
:1015200041463846C84701301ED02368226903F07F
:101530000603042B02BFE5683368ED1AA3680CBFED
:1015400025EAE57500259342C4BF9B1AED180026D5
:101550001A34B5421AD1002008E001235246414610
:101560003846C847013003D14FF0FF30BDE8F0875F
:101570000135C6E7E1185A1C302081F843002244A7
:1015800094F8451082F843100233C7E7012322463E
:1015900041463846C8470130E6D00136D9E7000059
:1015A0002DE9FF470F7E0C9E782F914680460C4612
:1015B0009A4601F1430207D8622F0AD8002F00F0A3
:1015C000D180582F00F0B88004F1420684F84270B0
:1015D0003AE0A7F16303152BF6D801A151F823F0E7
:1015E000391600084D160008C9150008C91500086D
:1015F000C9150008C91500084D160008C9150008CE
:10160000C9150008C9150008C91500084B170008BE
:101610007716000805170008C9150008C915000845
:101620006D170008C915000877160008C9150008CD
:10163000C91500080D17000833681A1D1B683260B1
:1016400004F1420684F8423001239CE033682068AC
:10165000191D3160060601D51D6803E04506FBD55E
:10166000B3F90050002D03DA2D236D4284F8433086
:1016700058480A2311E021683368080653F8045BD0
:1016800002D4490648BFADB26F2F5248336014BF31
:101690000A230823002184F843106668A660002E00
:1016A00005DB21682E4321F0040121604BD0164652
:1016B000B5FBF3F103FB1157C75D06F8017D2F461B
:1016C000BB420D46F4D9082B0BD12368DF0708D5A0
:1016D000236961689942DEBF302306F8013C06F1B8
:1016E000FF36921B2261CDF800A04B4603AA21468B
:1016F0004046FFF7E7FE01304AD14FF0FF3004B01B
:10170000BDE8F087236843F0200323603248782740
:1017100084F84570236831681F0651F8045B02D4D1
:101720005F0648BFADB23160D90744BF43F0200324
:1017300023601DB11023ADE72648E9E7236823F0B5
:1017400020032360F6E71646BDE733682568616924
:10175000181D30602E061B6801D5196002E068066E
:10176000FBD51980002323611646BCE733681A1D98
:1017700032601E68626800213046FEF711FD08B134
:10178000801B606063682361002384F84330AAE70C
:101790002369324649464046D0470130ADD02368E0
:1017A0009B0713D4E068039B9842B8BF1846A6E78E
:1017B0000123324649464046D04701309DD001358D
:1017C000E36803995B1AAB42F2DCEBE7002504F116
:1017D0001906F5E71219000823190008884210B508
:1017E00001EB020402D98442234607D8431EA142DA
:1017F00008D011F8012B03F8012FF8E70244014645
:101800008A4200D110BD13F8014D02F8014DF7E7EF
:1018100038B5064D0023044608462B60FEF71CFF32
:10182000431C02D12B6803B1236038BDF0010020B6
:101830000A44914200F1FF3300D1704710B511F80E
:10184000014B03F8014F9142F9D110BD2DE9F04150
:10185000074614460D4621B9BDE8F0411146FFF791
:101860004DBC2AB9FFF7DEFB25462846BDE8F081CE
:1018700000F01AF88442064602D8B4EB500FF4D8B0
:1018800021463846FFF73AFC804608B94546ECE762
:10189000B4422246294628BF3246FFF7C9FF2946EF
:1018A0003846FFF7BFFBF1E751F8043C181F002B47
:1018B000BCBF0B58C0187047F8B500BFF8BC08BCD7
:1018C0009E467047F8B500BFF8BC08BC9E467047FE
:1018D0005961773A2025362E3166C2B0207C2052DD
:1018E0006174653A2025362E3266C2B02F73207C93
:1018F000204F66667365743A2025362E33660D0ACE
:1019000000232D302B2000686C4C0065666745462F
:101910004700303132333435363738394142434469
:1019200045460030313233343536373839616263F9
:041930006465660084
:081934006CE8FF7F01000000D8
:04193C002106000878
:04194000F90500089D
:101944000400002000000000B80000202001002056
:1019540088010020000000000000000000000000DA
:101964000000000000000000000000000000000073
:101974000000000000000000000000000000000063
:101984000000000000000000000000000000000053
:0400000508000F35AB
:00000001FF
