:020000040800F2
:1000000000000220291F0008791F0008791F00083E
:10001000791F0008791F0008791F00080000000000
:10002000000000000000000000000000791F000830
:10003000791F000800000000791F00085511000812
:10004000791F0008791F0008791F0008791F000830
:10005000791F0008791F0008791F0008791F000820
:10006000791F0008791F0008791F0008791F000810
:10007000791F0008791F0008791F0008791F000800
:10008000791F0008791F0008791F00080000000090
:10009000000000000000000000000000191200082D
:1000A000791F0008791F0008791F0008791F0008D0
:1000B000791F0008791F0008791F0008791F0008C0
:1000C000791F0008791F0008791F0008791F0008B0
:1000D000791F0008791F0008791F00080000000040
:1000E00095110008791F0008791F00080000000022
:1000F000000000000000000000000000791F000860
:1001000000000000791F0008791F0008791F00080F
:1001100000000000000000000000000000000000DF
:10012000791F0008791F0008791F0008791F00084F
:10013000791F00080000000000000000000000001F
:10014000000000000000000000000000791F00080F
:10015000791F0008791F0008791F0008791F00081F
:10016000791F0008791F000800000000000000004F
:10017000000000000000000000000000000000007F
:1001800000000000791F00080000000000000000CF
:08019000791F0008791F000827
:1001A00001F0FF01102A2BDB10F0070F08D010F828
:1001B000013B013A8B422DD010F0070F42B3F6D12C
:1001C000F0B441EA012141EA014122F007047FF045
:1001D00000070023F0E80256083C85EA010586EA9C
:1001E000010685FA47F5A3FA87F586FA47F6A5FAD8
:1001F00087F68EB9EED1F0BC01F0FF0102F00702E4
:1002000032B110F8013B013A83EA010313B1F8D18E
:100210000020704701387047002D06BF354603386F
:10022000073815F0010F07D1013015F4807F02BFA8
:10023000013015F4C03F0130F0BC0138704700BFF9
:10024000034613F8012B002AFBD1181A0138704716
:1002500081F0004102E000BF83F0004330B54FEA77
:1002600041044FEA430594EA050F08BF90EA020FE4
:100270001FBF54EA000C55EA020C7FEA645C7FEA77
:10028000655C00F0E2804FEA5454D4EB5555B8BF9A
:100290006D420CDD2C4480EA020281EA030382EA0B
:1002A000000083EA010180EA020281EA0303362D9D
:1002B00088BF30BD11F0004F4FEA01314FF4801C70
:1002C0004CEA113102D0404261EB410113F0004F82
:1002D0004FEA03334CEA133302D0524263EB430339
:1002E00094EA050F00F0A780A4F10104D5F1200ED7
:1002F0000DDB02FA0EFC22FA05F2801841F1000132
:1003000003FA0EF2801843FA05F359410EE0A5F105
:1003100020050EF1200E012A03FA0EFC28BF4CF036
:10032000020C43FA05F3C01851EBE37101F00045EC
:1003300007D54FF0000EDCF1000C7EEB00006EEBF9
:100340000101B1F5801F1BD3B1F5001F0CD3490883
:100350005FEA30004FEA3C0C04F101044FEA4452DA
:1003600012F5800F80F09A80BCF1004F08BF5FEA61
:10037000500C50F1000041EB045141EA050130BD41
:100380005FEA4C0C404141EB0101013C28BFB1F553
:10039000801FE9D291F0000F04BF01460020B1FA9E
:1003A00081F308BF2033A3F10B03B3F120020CDA71
:1003B0000C3208DD02F1140CC2F10C0201FA0CF04F
:1003C00021FA02F10CE002F11402D8BFC2F1200CB4
:1003D00001FA02F120FA0CFCDCBF41EA0C0190406A
:1003E000E41AA2BF01EB0451294330BD6FEA0404B3
:1003F0001F3C1CDA0C340EDC04F11404C4F120029E
:1004000020FA04F001FA02F340EA030021FA04F3AF
:1004100045EA030130BDC4F10C04C4F1200220FA06
:1004200002F001FA04F340EA0300294630BD21FA44
:1004300004F0294630BD94F0000F83F4801306BF0A
:1004400081F480110134013D4EE77FEA645C18BFFE
:100450007FEA655C29D094EA050F08BF90EA020F95
:1004600005D054EA000C04BF1946104630BD91EA8D
:10047000030F1EBF0021002030BD5FEA545C05D190
:100480004000494128BF41F0004130BD14F58004CF
:100490003CBF01F5801130BD01F0004545F0FE4143
:1004A00041F470014FF0000030BD7FEA645C1ABF78
:1004B000194610467FEA655C1CBF0B46024650EAAF
:1004C000013406BF52EA033591EA030F41F40021DB
:1004D00030BD00BF90F0000F04BF0021704730B561
:1004E0004FF4806404F132044FF000054FF0000136
:1004F00050E700BF90F0000F04BF0021704730B5F7
:100500004FF4806404F1320410F0004548BF4042CB
:100510004FF000013EE700BF42004FEAE2014FEA20
:1005200031014FEA02701FBF12F07F4393F07F4FFB
:1005300081F06051704732F07F4208BF704793F0FE
:100540007F4F04BF41F40021704730B54FF4607411
:1005500001F0004521F000411CE700BF50EA010214
:1005600008BF704730B54FF000050AE050EA0102BD
:1005700008BF704730B511F0004502D5404261EB2D
:1005800041014FF4806404F132045FEA915C3FF46E
:10059000D8AE4FF003025FEADC0C18BF03325FEA0B
:1005A000DC0C18BF033202EBDC02C2F1200300FABC
:1005B00003FC20FA02F001FA03FE40EA0E0021FAE1
:1005C00002F11444BDE600BF70B54FF0FF0C4CF4CF
:1005D000E06C1CEA11541DBF1CEA135594EA0C0F81
:1005E00095EA0C0F00F0DEF82C4481EA030621EABC
:1005F0004C5123EA4C5350EA013518BF52EA0335F7
:1006000041F4801143F4801338D0A0FB02CE4FF0A8
:100610000005E1FB02E506F00042E0FB03E54FF0D8
:100620000006E1FB03569CF0000F18BF4EF0010ED0
:10063000A4F1FF04B6F5007F64F5407404D25FEACC
:100640004E0E6D4146EB060642EAC62141EA55517F
:100650004FEAC52040EA5E504FEACE2EB4F1FD0CC1
:1006600088BFBCF5E06F1ED8BEF1004F08BF5FEA3F
:10067000500E50F1000041EB045170BD06F00046F1
:1006800046EA010140EA020081EA0301B4EB5C049E
:10069000C2BFD4EB0C0541EA045170BD41F4801196
:1006A0004FF0000E013C00F3AB8014F1360FDEBFBB
:1006B000002001F0004170BDC4F10004203C35DA97
:1006C0000C341BDC04F11404C4F1200500FA05F31A
:1006D00020FA04F001FA05F240EA020001F00042BB
:1006E00021F0004110EBD37021FA04F642EB060131
:1006F0005EEA430E08BF20EAD37070BDC4F10C045B
:10070000C4F1200500FA04F320FA05F001FA04F21E
:1007100040EA020001F0004110EBD37041F100010A
:100720005EEA430E08BF20EAD37070BDC4F1200515
:1007300000FA05F24EEA020E20FA04F301FA05F27D
:1007400043EA020321FA04F001F0004121FA04F225
:1007500020EA020000EBD3705EEA430E08BF20EAF5
:10076000D37070BD94F0000F0FD101F0004640002F
:1007700041EB010111F4801F08BF013CF7D041EAB1
:10078000060195F0000F18BF704703F000465200B5
:1007900043EB030313F4801F08BF013DF7D043EA86
:1007A0000603704794EA0C0F0CEA135518BF95EA3C
:1007B0000C0F0CD050EA410618BF52EA4306D1D1C3
:1007C00081EA030101F000414FF0000070BD50EAE2
:1007D000410606BF1046194652EA430619D094EA6C
:1007E0000C0F02D150EA013613D195EA0C0F05D156
:1007F00052EA03361CBF104619460AD181EA0301AA
:1008000001F0004141F0FE4141F470014FF0000061
:1008100070BD41F0FE4141F4780170BD70B54FF0FC
:10082000FF0C4CF4E06C1CEA11541DBF1CEA13557C
:1008300094EA0C0F95EA0C0F00F0A7F8A4EB05045E
:1008400081EA030E52EA03354FEA013100F0888055
:100850004FEA03334FF0805545EA131343EA12631E
:100860004FEA022245EA111545EA10654FEA0026D3
:100870000EF000419D4208BF964244F1FD0404F58C
:10088000407402D25B084FEA3202B61A65EB0305E8
:100890005B084FEA32024FF480104FF4002CB6EBA5
:1008A000020E75EB030E22BFB61A754640EA0C0025
:1008B0005B084FEA3202B6EB020E75EB030E22BF65
:1008C000B61A754640EA5C005B084FEA3202B6EBA6
:1008D000020E75EB030E22BFB61A754640EA9C0065
:1008E0005B084FEA3202B6EB020E75EB030E22BF35
:1008F000B61A754640EADC0055EA060E18D04FEAF3
:10090000051545EA16754FEA06164FEAC30343EA92
:1009100052734FEAC2025FEA1C1CC0D111F4801F5F
:100920000BD141EA00014FF000004FF0004CB6E758
:1009300011F4801F04BF01430020B4F1FD0C88BFF7
:10094000BCF5E06F3FF6AFAEB5EB030C04BFB6EB02
:10095000020C5FEA500C50F1000041EB045170BDF5
:100960000EF0004E4EEA113114EB5C04C2BFD4EB22
:100970000C0541EA045170BD41F480114FF0000EA6
:10098000013C90E645EA060E8DE60CEA135594EA22
:100990000C0F08BF95EA0C0F3FF43BAF94EA0C0F25
:1009A0000AD150EA01347FF434AF95EA0C0F7FF49A
:1009B00025AF104619462CE795EA0C0F06D152EAEE
:1009C00003353FF4FDAE1046194622E750EA4106D2
:1009D00018BF52EA43067FF4C5AE50EA41047FF4E3
:1009E0000DAF52EA43057FF4EBAE12E74FF0FF3C48
:1009F00006E000BF4FF0010C02E000BF4FF0010C19
:100A00004DF804CD4FEA410C7FEA6C5C4FEA430C91
:100A100018BF7FEA6C5C1BD001B050EA410C0CBFE0
:100A200052EA430C91EA030F02BF90EA020F002042
:100A3000704710F1000F91EA030F58BF994208BFA9
:100A400090422CBFD8176FEAE37040F00100704766
:100A50004FEA410C7FEA6C5C02D150EA013C07D1BD
:100A60004FEA430C7FEA6C5CD6D152EA033CD3D008
:100A70005DF8040B704700BF8446104662468C4602
:100A80001946634600E000BF01B5FFF7B7FF002835
:100A900048BF10F1000F01BD4DF808EDFFF7F4FF5E
:100AA0000CBF012000205DF808FB00BF4DF808EDE9
:100AB000FFF7EAFF34BF012000205DF808FB00BF0C
:100AC0004DF808EDFFF7E0FF94BF012000205DF82E
:100AD00008FB00BF4DF808EDFFF7CEFF94BF0120E3
:100AE00000205DF808FB00BF4DF808EDFFF7C4FFDC
:100AF00034BF012000205DF808FB00BF4FEA410C25
:100B00007FEA6C5C02D150EA013C0AD14FEA430C07
:100B10007FEA6C5C02D152EA033C02D14FF0000044
:100B200070474FF0010070474FEA410212F5001282
:100B300015D211D56FF47873B3EB625212D94FEA24
:100B4000C12343F0004343EA505311F0004F23FA0E
:100B500002F018BF404270474FF00000704750EA63
:100B6000013005D111F0004008BF6FF00040704720
:100B70004FF00000704700BF4FEA4102B2F1E0437E
:100B800024BFB3F5001CDCF1FE5C0DD901F0004C74
:100B90004FEAC0024CEA5070B2F1004F40EB8300C4
:100BA00008BF20F00100704711F0804F21D113F1F0
:100BB0003872BCBF01F00040704741F480114FEA29
:100BC0005252C2F11802C2F1200C10FA0CF320FAB2
:100BD00002F018BF40F001004FEAC1234FEAD323CF
:100BE00003FA0CFC40EA0C0023FA02F34FEA430339
:100BF000CCE77FEA625307D150EA01331EBF4FF0C2
:100C0000FE4040F44000704701F0004040F0FE40DC
:100C100040F40000704700BF10B5054C237833B98D
:100C2000044B13B10448AFF300800123237010BDBF
:100C30004402002000000000DC4B000808B5034B14
:100C40001BB103490348AFF3008008BD000000005A
:100C500048020020DC4B0008034AD2F8883043F4F5
:100C60007003C2F88830704700ED00E00120704743
:100C700008B501F04FFF162303604FF0FF3008BDA9
:100C800008B54FF0FF31FFF7F3FFFEE770B50C46F4
:100C90001646002506E0AFF30080214601F8010B5F
:100CA00001350C46B542F6DB304670BD70B50C46DA
:100CB0001646002504E014F8010BAFF3008001355F
:100CC000B542F8DB304670BD4FF0FF3070474FF44F
:100CD00000534B6000207047012070470020704790
:100CE00010B503460C4A0D490D48006840B10C4848
:100CF00000680344521A934206D8094A136010BD93
:100D00000748084C0460F2E701F004FF0C2303607D
:100D10004FF0FF30F3E700BF0000022000040000A6
:100D200060020020F803002008B500F0DDF800F0B4
:100D300055F800F0B5F800F047F900F099F900F027
:100D40009BFA00F03BFD104800F068FD00F0CAFB84
:100D500018B10E4800F062FDFEE70D4800F05EFDA0
:100D600000F0FAFB0B4800F059FD0B4B1B78002BF1
:100D7000FBD04FF47A7000F061FD01F035F8064BBE
:100D800000221A70F1E700BFF84B0008044C00087D
:100D9000144C0008204C00086402002000B500F04C
:100DA0000700C0F1070CBCF1040F28BF4FF0040C82
:100DB000031D062B0FD9C31E4FF0FF3E0EFA0CF099
:100DC00021EA000199400EFA03FE22EA0E0241EAEE
:100DD00002005DF804FB0023EEE700002D4A136BD0
:100DE00043F0020313632C4B1A6842F480121A601A
:100DF0005A6822F480625A609A6842F480129A60BB
:100E0000DA6822F48012DA609A6942F080629A61AC
:100E10001A6842F480521A605A6822F040025A60FE
:100E20009A6842F480529A60DA6822F48052DA605A
:100E30009A6942F480029A611A6842F480621A60E8
:100E40005A6822F020025A609A6842F480629A60DE
:100E5000DA6822F48062DA609A6942F400129A61D8
:100E60001A6842F480421A605A6822F080025A607E
:100E70009A6842F480429A60DA6822F48042DA602A
:100E80009A6942F400029A61044AD36843F080638D
:100E9000D36070470038024000040240000802405E
:100EA0004FF0E0231A6922F001021A611A6942F038
:100EB00002021A611A6942F004021A615A6902F0C8
:100EC0007F4242F4BB3242F0FF025A619A6902F05B
:100ED0007F4242F4BB3242F0FF029A611A6942F04B
:100EE00001021A6170470000354A136823F0F803C5
:100EF00043F08003136000239360314B9B6813F031
:100F00000C0FFAD12E4A136823F0807313602C4B18
:100F10001B6813F0007FFAD1294A136823F41023C9
:100F20001360274B1B6813F4003FFAD1244B1A6857
:100F300022F480221A601A6842F001021A60204BE3
:100F40001B6813F0020FFAD01D4B00225A605A683A
:100F50005A605A6842F008025A605A6842F4C05215
:100F60005A605A6822F480325A605A6842F08062AD
:100F70005A609A6842F002029A609A689A609A6887
:100F800042F480529A609A689A609A6822F04042CD
:100F90009A609A6822F040429A609A6842F0405201
:100FA0009A6008490A6842F003020A601A6842F02F
:100FB00080721A60024B1B6813F0007FFAD07047F2
:100FC00000380240003C0240264B1A6B42F00102FE
:100FD0001A635A6C42F001025A64234A136823F4DC
:100FE000702343F420231360536A23F0FF0343F07C
:100FF000110353621D4B1A6822F001021A609A6AAB
:101000006FF30F0242F005029A62DA6A40F2E732A9
:10101000DA621A6842F080021A609A6922F0780255
:1010200042F068029A619A6922F4F04242F4D04296
:101030009A615A6C42F400425A641A6A42F01102F0
:101040001A625A6B6FF30F025A639A6B6FF30F02B7
:101050009A635A6942F001025A611A6842F0010229
:101060001A60704700380240000002400000014052
:101070002DE9F041324A536C43F480435364314EBE
:10108000736923F00F0343F0020373612E4C23684E
:1010900043F480532360A36843F48053A360DFF8D4
:1010A000B080D8F80C0000221146C0F30220FFF7F0
:1010B00075FE0001C0B2254D85F828034FF48077F6
:1010C0006F60336923F00F0343F002033361236839
:1010D0003B432360A3683B43A360E3683B43E36077
:1010E000D8F80C0000221146C0F30220FFF756FE8C
:1010F0000001C0B285F817034FF400032B60736939
:1011000023F0F00343F020037361236843F400539A
:101110002360A36843F40053A360E36843F40053DF
:10112000E360D8F80C0000221146C0F30220FFF75C
:1011300035FE0001C0B285F828036F60BDE8F0817C
:101140000038024000380140003C014000E100E06E
:1011500000ED00E00B4A1368013313600A4B1B6873
:1011600013B1013B084A1360084B1B6813B1013BE4
:10117000064A1360064B1B8813B1013B044A1380D7
:10118000704700BF68020020700200206C0200203F
:10119000660200201A4B5B6913F4805F15D0194B6F
:1011A0001B6913F4805F0BD0174B1B6843B9174AB8
:1011B00013889BB201339BB21380134B05221A6034
:1011C0000F4A536943F4805353610D4B5B6913F429
:1011D000005F14D00B4B1B6913F4005F0AD10C4B5A
:1011E0001B883BB90A4B64221A800A4A137883F0A1
:1011F00001031370024A536943F40053536170476B
:10120000003C0140000802406C02002074020020F3
:1012100066020020640200200B4B5B6913F4807FA0
:1012200010D00A4B1B6843B9094A13889BB201339B
:101230009BB21380054B05221A60034A536943F49D
:1012400080735361704700BF003C01407002002072
:101250007602002042F2107302680A4205D15A1E3B
:1012600013B100BF1346F7E713460BB100207047D8
:101270004FF0FF3070470000224B1A6B42F0020221
:101280001A631A6C42F400121A64A3F550531A68D8
:1012900022F470221A601A6842F420221A605A68F6
:1012A00042F440725A609A6842F470229A60DA6896
:1012B00022F47022DA60DA6842F4A022DA605A6A14
:1012C00022F0FF025A625A6A42F044025A62A3F5BF
:1012D000D8331A6842F400421A601A6822F40042B5
:1012E0001A605A6822F03F025A605A6842F030028F
:1012F0005A60F022DA6131221A621A6842F0010261
:101300001A6070470038024008B5054A136843F474
:101310008073136001210348FFF79CFF08BD00BFE5
:101320000054004014540040034A136843F400730F
:1013300013600020704700BF0054004000B583B028
:10134000094B186102210948FFF784FF40B9064A9A
:101350005369926913430193019B03B05DF804FB49
:101360004FF0FF30F9E700BF005400401454004034
:1013700010B5044680210948FFF76CFF38B9084BC7
:101380001C6104210548FFF765FF18B910BD4FF037
:10139000FF30FBE74FF0FF30F8E700BF1454004088
:1013A00000540040F8B504460E461546FFF7ACFF62
:1013B00000285FD1D020FFF7C1FFA8B92046FFF772
:1013C000D7FFB0B9FFF7A0FF002856D1012D15D0E7
:1013D0002D4A136843F480631360D120FFF7AEFFFA
:1013E000074658BB002438E0FFF79EFF4FF0FF3759
:1013F00018E0FFF799FF4FF0FF3713E0224A136818
:1014000023F480631360D120FFF798FF60B9402177
:101410001E48FFF71FFF074658B91B4B1B69337067
:10142000FFF782FF3846F8BDFFF77EFF4FF0FF372A
:10143000F8E7FFF779FF4FF0FF37F3E7FFF774FFA7
:101440004FF0FF37EEE740211048FFF703FFB8B930
:101450000D4B1B6933550134E4B2AC42E2D26B1E32
:101460009C42F0D1084A136823F480631360FFF7AD
:101470005BFFE8E74FF0FF37D4E74FF0FF37D1E7E6
:101480004FF0FF37CEE700BF005400401454004037
:1014900038B504460D46FFF737FFF8B9D020FFF7FF
:1014A0004DFF60B92046FFF763FF68B92846FFF794
:1014B0005FFF044668B9FFF737FF204638BDFFF7E6
:1014C00033FF4FF0FF34F8E7FFF72EFF4FF0FF3404
:1014D000F3E7FFF729FF4FF0FF34EEE74FF0FF345B
:1014E000EBE7000010B582B001220DF10701752075
:1014F000FFF758FF9DF80730682B01D0982B23D1B8
:1015000000F096F9044600F093F9001B6328FAD91D
:1015100000216B20FFF7BCFF00211920FFF7B8FF67
:1015200001211A20FFF7B4FF00211B20FFF7B0FFB5
:101530000023064A1360064A136000F079F9054B50
:101540001860002002B010BD0120FBE794020020CB
:10155000900200209802002070B52DED028B82B021
:10156000002635469FED1B8A1FE0022201A9472075
:10157000FFF718FF9DF804301B021BB29DF80520F1
:10158000134307EE903AF8EEE77ADFED136A87EE41
:10159000A67A38EE078A0135ADB200F049F9044663
:1015A00000F046F9A042FBD00136B6F5FA6FDCDB5D
:1015B00045B107EE905AF8EEE77A88EE277A074BA6
:1015C00083ED007A064B00221A6002B0BDEC028B5C
:1015D00070BD00BF00000000000003439C0200201B
:1015E0009402002010B582B0022201A94720FFF723
:1015F000D9FE9DF804301B021BB29DF80520134351
:1016000007EE903AF8EEE77ADFED3D6A87EEA67ACC
:101610003C4BD3ED007A77EE677A3B48C0ED027A17
:101620003A4C22783A4901EB8203C3ED007A013249
:10163000384B83FB02C303EB4303D31A2370D1ED72
:10164000007A91ED017A77EE877A91ED027A77EE62
:10165000877AF0EE086A87EEA67A2F4B83ED007A40
:1016600080ED017A00F0E4F82C4B1B68C31A07EEFA
:10167000903AB8EE677ADFED2A6AC7EE267A9FEDD8
:10168000297AF4EEC77AF1EE10FA07DCF5EEC07AAB
:10169000F1EE10FA04D8214B186020E0DFED217A3A
:1016A0001D4B93ED007A67EE877A1F4B93ED007A1E
:1016B00077EE877AC3ED007A9FED1C7AF4EEC77A55
:1016C000F1EE10FA0DDD9FED1A7A77EEC77AC3EDD1
:1016D000007A154B1A680C4B1A60104B186002B058
:1016E00010BD9FED147AF4EEC77AF1EE10FAF0D542
:1016F0009FED0F7A77EE877A0B4BC3ED007AE8E720
:10170000000003439C020020A00200208802002069
:101710007C02002056555555940200208C02002072
:1017200000007A44CDCCCC3D900200200000344330
:101730000000B443000034C3014B93ED000A70472E
:10174000A002002030B599B000F072F8164B1B686B
:10175000C01AB0F57A7F01D819B030BD00F068F832
:10176000114B1860114B1868FEF7D6FE04460D4663
:101770000F4B1868FEF7D0FECDE902010D4B1B7828
:10178000009322462B460C4904A801F00DF90024D1
:1017900002E000F039F8013404F160036B4413F8FF
:1017A000500C0028F5D1D7E778020020A0020020D5
:1017B0009C02002064020020344C0008114B1A6B7C
:1017C00042F001021A631A6C42F400321A64A3F563
:1017D00060531A6822F030021A601A6842F0200240
:1017E0001A601A6A22F470621A621A6A42F4E0629B
:1017F0001A62A3F5DE3340F2A1129A6042F20C02A3
:10180000DA60704700380240034B1B6813F0800F0A
:10181000FAD0014B586070470044004010B50446B0
:1018200002E00134FFF7F0FF20780028F9D110BD65
:10183000014B1868704700BF6802002038B50546A4
:10184000FFF7F6FF0446FFF7F3FF001BA842FAD3A9
:1018500038BD82B00090019107EE900AF8EEE77A69
:10186000F4EEC07AF1EE10FA0EDC07EE901AF8EE04
:10187000E77AF4EEC07AF1EE10FA07D4FDEEC07A02
:1018800017EE900A02B070470098FBE70198F9E75D
:1018900003E0DFED0C7A30EE670ADFED0B7AB4EE91
:1018A000E70AF1EE10FAF4DC03E0DFED067A30EE41
:1018B000270ADFED067AB4EEE70AF1EE10FAF4D467
:1018C000704700BF0000B44300003443000034C33D
:1018D00008B500EE100A4FF42F714FF41B70B8EEEC
:1018E000400AFFF7B6FF014B986308BD00000140B6
:1018F00008B500EE100A4FF42F714FF41B70B8EECC
:10190000400AFFF7A6FF014B586308BD00000140E5
:10191000034630B9084A4FF088619161022B06D026
:1019200070470128FAD1044B044A9A617047024B70
:10193000034A9A61F4E700BF00040240000440003B
:1019400040000004034630B9084A4FF42001916179
:10195000022B06D070470128FAD1044B044A9A6141
:101960007047024B034A9A61F4E700BF000402404B
:10197000200080008000200008B50020FFF7C8FF8D
:101980000020FFF7DFFF0020FFF7A2FF0020FFF796
:10199000AFFF08BD2DE9D0432DED048B0446B0EE1A
:1019A000408AF0EE608AC068FEF7B6FD06460F4634
:1019B00094ED049A79EE087A17EE900AFEF7ACFDE2
:1019C0000022244BFEF700FE8046894618EE900A5E
:1019D000FEF7A2FD42464B46FEF7F6FD02460B46D9
:1019E00030463946FEF73AFCFFF7C6F807EE900A94
:1019F000E0609FED197AF4EEC77AF1EE10FA01DD9E
:101A000084ED037A94ED037ADFED147AB4EEE77A8D
:101A1000F1EE10FA01D5C4ED037A38EE499AC9EE19
:101A2000286A84ED048AD4ED007A67EE887A94ED12
:101A3000017A94ED036A27EE067A77EE877A94EDC1
:101A4000020A20EE260A37EE800ABDEC048BBDE8C0
:101A5000D08300BF0000E03F0000FA440000FAC459
:101A60000023C3600361704710B52DED068BF0EEC7
:101A7000409A5D48FFF7F4FF5C48FFF7F1FF5C48D0
:101A8000FFF7EEFF72B600235A4A13805A4A1380BA
:101A900062B6FFF7A7FDFFF74FFE70EE299AFFF73A
:101AA000C7FE044619E0B5EEC09AF1EE10FA40F315
:101AB0008E800220FFF72CFF0120FFF743FFFCEE92
:101AC000E88A18EE903A98B2FFF702FFBCEEC88A97
:101AD00018EE103A98B2FFF70BFFFFF7A9FEA042ED
:101AE000FBD0FFF7A5FE001B07EE900AF8EE677A21
:101AF0009FED427AC7EE878AFFF79AFE0446FFF70A
:101B000071FDFFF719FE39EEC00AB0EEC07ADFEDC5
:101B10003C7AB4EEE77AF1EE10FA5FD9F0EE680A9B
:101B20003248FFF737FFB0EE409AF0EE680AB0EEA9
:101B3000C00A2D48FFF72EFFB0EE408A2D4B1B88C0
:101B40009BB22D4A128892B29B1A00EE103AF0EE28
:101B5000680AB8EEC00A2648FFF71CFF38EE00AA54
:101B600040F28A214FF41B7038EE400AFFF771FEF5
:101B700008EE900AF8EEE88A40F28A214FF41B70D2
:101B8000B0EE4A0AFFF765FE08EE100AB8EEC88A02
:101B9000F5EEC08AF1EE10FA08DDDFED1A7AF4EE08
:101BA000E78AF1EE10FA01D5F0EE678AB5EEC08A49
:101BB000F1EE10FA7FF777AFDFED127AB4EEE78A35
:101BC000F1EE10FA7FF56FAFB0EE678A6BE7012098
:101BD000FFF79EFE0220FFF7B5FE70E7FFF7CCFE91
:101BE000BDEC068B10BD00BF2800002014000020B3
:101BF00000000020760200207402002000007A44D9
:101C0000CDCCCC3D00001644F8B52DED048BB0EEE4
:101C1000408A6A48FFF724FF6948FFF721FF6948B7
:101C2000FFF71EFF72B60023674A1380674A1380CE
:101C300062B6FFF7D7FCFFF77FFDB0EE409AF2EEF9
:101C4000047A28EE278A9FED627AC8EE077A9FED24
:101C5000617A67EE877AFCEEE77A17EE906AFFF713
:101C6000E7FD07462CE09FED5C8A4AE05B4B4FF4B2
:101C70002F721A80FFF780FEC820FFF7DFFDFFF705
:101C8000B1FCFFF759FD39EE400AFFF701FEFFF7FF
:101C9000EBFEBDEC048BF8BD0120FFF739FE0120FF
:101CA000FFF750FEFCEEE88A18EE903A98B2FFF784
:101CB0000FFEBCEEC88A18EE103A98B2FFF718FE75
:101CC000FFF740FDFFF7B4FDB842F9D072B63E4BC6
:101CD0001C88A4B23D4B1D88ADB262B6631907EEF5
:101CE000903AF8EEE77AB6EE007A67EE877AFCEE85
:101CF000E77A17EE903A9BB2F31A952BB3DC9FED7F
:101D0000388A002BB2D0FFF793FDC01B07EE900A74
:101D1000F8EE677A9FED337AC7EE878AFFF788FD82
:101D20000746FFF75FFCFFF707FDF0EE680A39EEA4
:101D3000400A2348FFF72EFEF0EE409A631B00EEA8
:101D4000103AF0EE680AB8EEC00A1E48FFF722FE0D
:101D500078EE698A78EEC08A38EE298A38EE008AF1
:101D6000F4EEC88AF1EE10FA10DD1C4B1B8807EE6A
:101D7000903AB8EEE77AB4EEE87AF1EE10FA05D5CB
:101D8000C8EE876AF8EE678A88EE268AF4EEC88A7B
:101D9000F1EE10FA80D5114B1B8807EE903AB8EEA1
:101DA000E77AB4EEC87AF1EE10FA7FF575AFC8EEB7
:101DB000076AB8EE678AC8EEA68A6DE7640000205D
:101DC000500000203C000020760200207402002019
:101DD000997CD2430000204200801D4478000020FE
:101DE00000001B4400007A4408B52DED048BFFF77A
:101DF000B3FBFFF7F7FBDFED448AB0EE680AFFF7AD
:101E000003FFC820FFF71AFDFFF7ECFB9FED3F8AA9
:101E1000B0EE480AFFF728FEFFF79EFB9FED3C0A55
:101E2000FFF7F2FEC820FFF709FDFFF7DBFBBBEE73
:101E3000070AFFF719FEFFF78FFBDFED369AB0EECA
:101E4000690AFFF7E1FEC820FFF7F8FCFFF7CAFBBD
:101E50009FED319AB0EE490AFFF706FEFFF77CFBD3
:101E6000B0EE690AFFF7D0FEC820FFF7E7FCFFF7E6
:101E7000B9FBB0EE490AFFF7F7FDFFF76DFB9FEDE9
:101E8000279AB0EE490AFFF7BFFEC820FFF7D6FC3D
:101E9000FFF7A8FBDFED229AB0EE690AFFF7E4FD39
:101EA000FFF75AFB9FED1F0AFFF7AEFEC820FFF7B2
:101EB000C5FCFFF797FBB0EE690AFFF7D5FDFFF70A
:101EC0004BFBB0EE490AFFF79FFEC820FFF7B6FCB8
:101ED000FFF788FBBBEE0A0AFFF7C6FDFFF73CFBE6
:101EE000B0EE680AFFF790FEC820FFF7A7FCFFF7E7
:101EF00079FBB0EE480AFFF7B7FD41F28830FFF7F3
:101F00009DFCBDEC048B08BD000064420000F0C2E3
:101F100000006C420000404200008E4200003C4243
:101F200000008C4200004442DFF834D00D480E49D6
:101F30000E4A002302E0D458C4500433C4188C4223
:101F4000F9D30B4A0B4C002301E013600432A24288
:101F5000FBD3FEF781FE00F0E3FDFEF7E5FE7047E0
:101F6000000002200000002044020020245000084D
:101F700044020020F8030020FEE72DE9FF4757EC5C
:101F8000106B002F0C4619463B46BBBF07F10043C0
:101F90001F4600232D230B700D9BDDF830A09146CA
:101FA00023F02008BCBF32461646B8F1460F05D0D4
:101FB000B8F1450F00D10134022100E0032103AB49
:101FC000019302AB009347EC106B5346224600F09E
:101FD00057FEB8F1470F054619D119F0010F0ED081
:101FE00000EB04090022002330463946FEF754FD79
:101FF00008B1CDF80C903022039B4B451ED3039BB8
:102000000E9A5B1B2846136004B0BDE8F087B8F158
:10201000460F00EB0409E5D10378302B0AD10022EA
:10202000002330463946FEF737FD18B9C4F10104E4
:10203000CAF80040DAF800309944D3E7591C0391FC
:102040001A70D9E7F7B50029BABF49422D232B23CF
:1020500009290270437029DD0DF107031D460A2787
:102060001A46B1FBF7F607FB1614303402F8014CA0
:102070000C46632C03F1FF333146F1DC3031941E02
:1020800003F8011C411C2346AB420AD30DF109039E
:102090009B1AAC4288BF002302330344181A03B0D2
:1020A000F0BD13F8016B01F8016FEDE7302330311B
:1020B0008370C170031DF1E72DE9F04F8DB00C4620
:1020C000DDF8588016461F46054600F0D9FC036827
:1020D00004931846FEF7B4F800230A93D8F80030AA
:1020E0000590073323F0070303F1080294F818A0C2
:1020F000D4F800B0C8F80020D3E9008929F00043E3
:102100000793CDF81880C4E91289DDE906019C4BDC
:102110004FF0FF32FEF7F2FC70BBDDE90601984B91
:102120004FF0FF32FEF7CCFC30BB002200234046CC
:102130004946FEF7BBFC10B12D2384F84330914A89
:10214000914BBAF1470F8CBF904698460323236109
:102150002BF0040323604FF00009009733460BAACD
:102160002146284600F0D2F9013040F08D804FF032
:10217000FF300DB0BDE8F08F42464B464046494621
:10218000FEF7BCFC40B14B46002BBCBF2D2384F8AE
:1021900043307E4A7E4BD4E763680AF0DF02069242
:1021A0005A1C3BD1062363604BF4806200232260FB
:1021B00003930AABCDE901A309AB0093616849EC35
:1021C000108B0DF123032846FFF7D7FE069B0999D4
:1021D000472B804629D1C81C02DB6368994241DD48
:1021E000AAF1020A5FFA8AFA0139524604F1500054
:1021F0000991FFF727FF0A9A1318012A81462361E4
:1022000002DC2268D20701D5013323619DF8233017
:10221000002BA2D02D2384F843309EE7069A472A4C
:10222000C2D1002BC0D10123BDE7BAF1650FDBD9C4
:10223000BAF1660F18D1002963680BDD216113B96B
:102240002268D00702D501330B442361A1654FF00A
:102250000009DBE713B92268D20701D50233F4E79E
:102260000123F2E74FF0670A0A9B994205DB2368D6
:102270002161D807EAD54B1CE7E70029D4BFC1F19B
:10228000020201221344E0E723685A0507D42369B8
:10229000424631462846B84701302BD167E7BAF1AC
:1022A000650F40F2DD80D4E9120100220023FEF721
:1022B000F3FB002833D0374A012331462846B8477C
:1022C00001303FF454AFDDE90938434502DB2368B0
:1022D000D8070FD5DDE9042331462846B847013039
:1022E0003FF445AF4FF0000908F1FF3804F11A0A36
:1022F000C84509DC23689B0700F10381E0680B9B5C
:102300009842B8BF184634E7012352463146284662
:10231000B84701303FF42BAF09F10109E8E7099B09
:10232000002B39DC1B4A012331462846B8470130CF
:102330003FF41DAFDDE9093959EA030302D12368EF
:10234000D907D7D5DDE9042331462846B8470130FF
:102350003FF40DAF4FF0000A04F11A0B099B5B42EA
:10236000534501DC4B4693E701235A463146284644
:10237000B84701303FF4FBAE0AF1010AEEE700BFB7
:10238000FFFFEF7F664C0008624C00086E4C0008AF
:102390006A4C0008724C0008A36DDDF828A0534574
:1023A000A8BF5346002B994636DC4FF0000B29EAB4
:1023B000E97904F11A02A36D0693A3EB09035B45C7
:1023C00031DC099B9A453ADC2368DA0737D4099B4C
:1023D000AAEB0309069BAAEB03039945A8BF9946FC
:1023E000B9F1000F33DC4FF0000829EAE97904F174
:1023F0001A0B099BAAEB0303A3EB090343457FF7E1
:1024000079AF01235A4631462846B84701303FF498
:10241000AEAE08F10108ECE7424631462846B8471F
:102420000130C2D1A3E60123314628460692B847BF
:1024300001303FF49CAE069A0BF1010BBBE7DDE9DE
:10244000042331462846B8470130C0D18FE6069AAA
:102450004B46424431462846B8470130C3D186E650
:10246000DDF828A0BAF1010F01DCDB0736D5012326
:10247000424631462846B84701303FF478AEDDE9A0
:10248000042331462846B84701303FF470AED4E902
:102490001201002200230AF1FF3AFEF7FDFAC0B94B
:1024A000534608F1010231462846B84701300CD1A5
:1024B0005DE601235A4631462846B84701303FF4CD
:1024C00056AE08F10108D045F3DB4B4604F150024B
:1024D000DFE64FF0000804F11A0BF4E7012342464F
:1024E000E1E701234A4631462846B84701303FF428
:1024F0003EAE08F10108E3680B995B1A4345F0DC36
:10250000FCE64FF0000804F11909F4E72DE9F04763
:10251000164698468A680B69DDF820909342B8BF4A
:102520001346336091F8432007460C460AB1013345
:1025300033602368990642BF3368023333602568ED
:1025400015F0060506D104F1190AE36832689B1AF2
:10255000AB4226DC94F843302268003B18BF0123CD
:1025600092062BD404F1430241463846C847013055
:102570001ED02368226903F00603042B02BFE5681E
:102580003368ED1AA3680CBF25EAE5750025934270
:10259000C4BF9B1AED1800261A34B5421AD1002088
:1025A00008E00123524641463846C847013003D16E
:1025B0004FF0FF30BDE8F0870135C6E7E1185A1C3F
:1025C000302081F84300224494F8451082F84310EB
:1025D0000233C7E70123224641463846C847013047
:1025E000E6D00136D9E700002DE9FF470F7E0C9EAB
:1025F000782F914680460C469A4601F1430207D84F
:10260000622F0AD8002F00F0D180582F00F0B88038
:1026100004F1420684F842703AE0A7F16303152BF7
:10262000F6D801A151F823F081260008952600086C
:10263000112600081126000811260008112600089E
:10264000952600081126000811260008112600080A
:102650001126000893270008BF2600084D27000810
:102660001126000811260008B527000811260008C9
:10267000BF2600081126000811260008552700086B
:1026800033681A1D1B68326004F1420684F8423038
:1026900001239CE033682068191D3160060601D5CE
:1026A0001D6803E04506FBD5B3F90050002D03DAA1
:1026B0002D236D4284F8433058480A2311E02168E5
:1026C0003368080653F8045B02D4490648BFADB22C
:1026D0006F2F5248336014BF0A230823002184F867
:1026E00043106668A660002E05DB21682E4321F0AA
:1026F000040121604BD01646B5FBF3F103FB1157E3
:10270000C75D06F8017D2F46BB420D46F4D9082B64
:102710000BD12368DF0708D5236961689942DEBFC2
:10272000302306F8013C06F1FF36921B2261CDF8FA
:1027300000A04B4603AA21464046FFF7E7FE0130C2
:102740004AD14FF0FF3004B0BDE8F087236843F072
:10275000200323603248782784F845702368316865
:102760001F0651F8045B02D45F0648BFADB231606A
:10277000D90744BF43F0200323601DB11023ADE708
:102780002648E9E7236823F020032360F6E716468E
:10279000BDE7336825686169181D30602E061B6827
:1027A00001D5196002E06806FBD51980002323617A
:1027B0001646BCE733681A1D32601E686268002145
:1027C0003046FDF7EDFC08B1801B60606368236153
:1027D000002384F84330AAE723693246494640463D
:1027E000D0470130ADD023689B0713D4E068039B2A
:1027F0009842B8BF1846A6E70123324649464046EC
:10280000D04701309DD00135E36803995B1AAB4294
:10281000F2DCEBE7002504F11906F5E7744C00083B
:10282000854C0008002310B50446C0E90033C0E918
:102830000433836081814366C28183611946082223
:102840005C3000F014F90D4B63620D4BA3620D4B2D
:10285000E3620D4B23630D4B24629C4206D003F1CF
:102860006802944202D0D0339C4205D104F1580052
:10287000BDE8104000F078B910BD00BFE92900089C
:102880000B2A0008432A0008672A0008AC0200202F
:10289000024A0349034800F069B800BF7C000020E9
:1028A000A14400088C00002041680C4B994210B5EF
:1028B000044601D001F0F4FDA168094B994202D011
:1028C000204601F0EDFDE168064B994204D0204618
:1028D000BDE8104001F0E4BD10BD00BFAC02002017
:1028E000140300207C03002010B50B4B0B4C0C4A4A
:1028F0001A60204600220421FFF794FF04F16800CB
:1029000001220921FFF78EFF04F1D0000222BDE869
:1029100010401221FFF786BFE4030020AC02002024
:1029200091280008014800F020B900BFED03002005
:10293000014800F01BB900BFED03002010B50446AC
:10294000FFF7F0FF236A1BB1BDE81040FFF7F0BFAF
:10295000044B2362044B1B68002BF5D1FFF7C4FF27
:10296000F2E700BFA9280008E40300202DE9F8439E
:102970000746884614460026D4E90195B9F10109B5
:1029800005D52468002CF7D13046BDE8F883AB8923
:10299000012B07D9B5F90E30013303D0294638464B
:1029A000C04706436835E9E70EB400B59CB01DABDF
:1029B000029006906FF0004109480791049109497F
:1029C00053F8042B05910068019302A901F0E8FB7C
:1029D000029B00221A701CB05DF804EB03B0704734
:1029E000880000200802FFFF10B50C46B1F90E1058
:1029F00000F06CF80028ABBF636DA3891B1823F4AB
:102A00008053ACBF6365A38110BD2DE9F0411F4623
:102A10008B89DB0505460C46164605D5B1F90E1027
:102A20000223002200F040F8A389B4F90E1023F429
:102A30008053A38132463B462846BDE8F04100F072
:102A400057B810B50C46B1F90E1000F02DF8431C24
:102A5000A38915BF606523F4805343F48053A38199
:102A600018BFA38110BDB1F90E1000F00DB80244DB
:102A70000346934200D1704703F8011BF9E70000B9
:102A800000487047C801002038B5064D00230446B1
:102A900008462B60FEF718F9431C02D12B6803B1DE
:102AA000236038BDE803002038B5074D04460846CA
:102AB000114600222A601A46FEF710F9431C02D183
:102AC0002B6803B1236038BDE803002038B5074DFB
:102AD00004460846114600222A601A46FEF7D6F838
:102AE000431C02D12B6803B1236038BDE8030020EA
:102AF00038B5074D04460846114600222A601A469A
:102B0000FEF7D4F8431C02D12B6803B1236038BD13
:102B1000E8030020014B1868704700BF88000020C0
:102B200070B50D4D0D4C641BA4100026A64209D1B2
:102B30000B4D0C4C02F052F8641BA4100026A64268
:102B400005D170BD55F8043B98470136EEE755F8BE
:102B5000043B98470136F2E71C5000081C5000085F
:102B60001C500008205000087047704770472DE93E
:102B7000F74F03690C69A34207467EDB013C01F174
:102B80001408A30000F11405009305EB84030193DE
:102B900058F8243055F8242001339A4208EB840970
:102BA000B2FBF3F62ED34FF0000AC446AE46D3462E
:102BB0005CF8043B98B206FB00A0020C1B0C06FB61
:102BC0000323DEF8002080B292B2121A5A44DEF8D3
:102BD00000004FEA134A9BB2C3EB224303EB1043BE
:102BE00092B242EA0342E1454EF8042B4FEA234BEE
:102BF000DED2009BEB582BB9019B043B9D421A4649
:102C00002FD33C61384601F067F9002825DB2946BF
:102C1000002058F8042BD1F800C01FFA82FE1FFADA
:102C20008CF3A3EB0E030344120CC2EB234202EB22
:102C30001C429BB243EA0243C14541F8043B4FEAC0
:102C40002240E6D255F8242005EB840322B9043B48
:102C50009D421A460BD33C610136304603B0BDE8B5
:102C6000F08F1268043B002ACBD1013CC6E7126802
:102C7000043B002AEFD1013CEAE70020EEE7000028
:102C80002DE9F04FC76999B08DED040B55EC104B51
:102C9000229E099183460E9213937FB9102000F073
:102CA000F3FD0246CBF81C0020B9A54BEF21A54847
:102CB00001F056FCC0E901770760C760DBF81C3003
:102CC000196859B15A684A60012393408B6058468D
:102CD00000F0D0FEDBF81C3000221A602B1EB9BFBA
:102CE00023F00043059300233360059F964BBCBF40
:102CF00001223260BB4312D1139A42F20F73136068
:102D0000C7F31303234300F04385239BDFF84CA252
:102D1000002B00F045850AF1030300F03FBD9DED57
:102D2000047B002251EC170B00238DED0C7BFDF78B
:102D3000B3FE804658B1139A01231360239B13B14D
:102D4000239A824B1360DFF818A200F029BD9DED95
:102D50000C0B16AA17A9584601F06EF9C7F30A56CC
:102D60008146002E77D00D9BCDF85080C3F313031E
:102D7000DDE90C0143F07F5343F44013A6F2FF3624
:102D800019460022724BFDF767FA67A3D3E90023C7
:102D9000FDF71AFC66A3D3E90023FDF75FFA0446AA
:102DA00030460D46FDF7A6FB63A3D3E90023FDF7EC
:102DB0000BFC02460B4620462946FDF74FFA044617
:102DC0000D46FDF7B1FE00220746002320462946A6
:102DD000FDF76CFE40B13846FDF78CFB22462B46D2
:102DE000FDF75AFE00B9013F162F51D8594B03EB9E
:102DF000C703D3E90023DDE90C01FDF757FE0028E6
:102E000048D0013F00231293169B9B1B5A1E44BFC0
:102E1000C3F101080023089254BF4FF00008089343
:102E2000002F39DB089B0F973B44089300230A933C
:102E3000099B092B61D8052BC4BF043B0993099B4F
:102E4000A3F10203CCBF00240124032B61D8DFE8E7
:102E500003F05052352ADDE916631E4406F2324370
:102E6000202BC1BFC3F140039F4006F2124324FA56
:102E700003F3D6BFC3F1200347EA030004FA03F0CB
:102E8000FDF728FB0122A1F1F873013E149277E7C8
:102E90000123B8E71290B7E77B420A930023A8EB1F
:102EA00007080F93C4E701230B930E9BFB180093B5
:102EB0000133012B0393B8BF012306E001230B93D9
:102EC0000E9B002B28DD00930393DBF81C000021F0
:102ED000042202F114059D4223D94160584600F0B6
:102EE00089FD824600283DD11B4B024640F2AF11BE
:102EF000DDE60023E3E70023D6E70124002309935E
:102F00000B944FF0FF3300930393002212230E9291
:102F1000DBE701230B93F4E70123009303931A46A5
:102F2000F5E701315200D4E761436F63A787D23FD1
:102F3000B3C8608B288AC63FFB799F501344D33FA8
:102F4000A34C0008BA4C00080000F07F734C000846
:102F50000000F83F484E00082F4D00089F4C000825
:102F6000724C0008DBF81C301860039B0E2B00F23B
:102F7000A180002C00F09E80002F33DD9C4B07F0D9
:102F80000F0203EBC20393ED007BF8058DED067B8A
:102F90004FEA271416D5974BDDE90C01D3E9082336
:102FA000FDF73CFCCDE9040104F00F040326914D2C
:102FB00054B9DDE90623DDE90401FDF72FFCCDE975
:102FC000040128E00226F2E7E10708D5DDE9060161
:102FD000D5E90023FDF7F8FACDE9060101366410C2
:102FE0000835E5E700F0AF807C42814B814D04F06D
:102FF0000F0203EBC203D3E90023DDE90C01FDF767
:10300000E3FACDE90401241100230226002C40F04C
:103010008F80002BD3D1129BDDE90445002B00F0FB
:103020009480754B002220462946FDF73FFD00287D
:1030300000F08B80039B002B00F08780009B002B0F
:1030400034DD7B1E069320466C4B00222946FDF79B
:10305000BBFACDE90401009C01363046FDF74AFA7F
:10306000DDE90423FDF7B0FA654B0022FDF7F6F821
:103070000546A1F15076002C6AD1DDE90401614BCF
:103080000022FDF7E9F802460B46CDE904232A4663
:103090003346FDF729FD002840F08782DDE9040171
:1030A0002A4606F10043FDF701FD38BBDDE90C348B
:1030B000CDE90434179B002BC0F258810E2F00F38A
:1030C00055814B4B03EBC70393ED007B0E9B002B0D
:1030D0008DED007B80F2E580039B002B00F3E18007
:1030E0000CD1484B002251EC170BFDF76DFADDE9CE
:1030F0000423FDF7EFFC002800F05582002425464C
:103100000E9BDB430693564600272146584600F0A7
:10311000B1FC002D00F0BD802FB1AF4203D0394685
:10312000584600F0A7FC2946584600F0A3FCB0E042
:10313000E20705D5D5E90023FDF746FA013601235C
:103140006410083562E7022665E7039C069784E76A
:10315000274B0B9903EBC40353E902235444002982
:1031600054D029490020FDF759FB33462A46FDF784
:1031700073F8CDE910015646DDE90401FDF7D4FCF2
:103180000546FDF7B7F902460B46DDE90401FDF7F8
:1031900063F8303502460B46CDE9042306F8015B9F
:1031A000DDE91023FDF782FC002872D1DDE904235C
:1031B00011490020FDF750F8DDE91023FDF776FCFA
:1031C000002840F0B480A6423FF470AFDDE9100162
:1031D0000A4B0022FDF7F8F9084BCDE91001002257
:1031E000DDE90401FDF7F0F9CDE90401C4E700BF12
:1031F000484E0008204E00080000F03F0000244028
:1032000000001C40000014400000E03F314628460A
:10321000FDF7DAF9CDE9100115945646DDE9040110
:10322000FDF782FC0546FDF765F902460B46DDE930
:103230000401FDF711F8303506F8015B02460B4634
:10324000A642CDE904234FF0000224D1AB4BDDE9C7
:103250001001FDF703F802460B46DDE90401FDF716
:1032600043FC002863D1DDE91023A4490020FCF7CA
:10327000F3FF02460B46DDE90401FDF717FC0028C9
:103280003FF414AF159E731E159316F8013C302BB6
:10329000F8D0069F3BE09A4BFDF796F9CDE9040183
:1032A000BCE7DDE904455646DDE900232046294612
:1032B000FDF7B4FAFDF738FC8046FDF71BF9DDE9B0
:1032C0000023FDF781F902460B462046294608F106
:1032D0003004FCF7C1FF06F8014B039DA6EB0A047E
:1032E000A54202460B4634D1FCF7B8FFDDE90023C6
:1032F00004460D46FDF7F8FBC0B9DDE90023204682
:103300002946FDF7C9FB10B118F0010F0ED149464F
:10331000584600F0AFFB00233370139B01371F604A
:10332000239B002B00F03C821E6039E20697334657
:103330001E4613F8012D392A07D19A45F8D1069A6D
:103340000132069230228AF800201A7801321A706F
:103350009FE76B4B0022FDF737F90022002304465C
:103360000D46FDF799FB00289ED0D0E70B9A002A66
:1033700000F0E180099A012A00F3C480149A002A1F
:1033800000F0B78003F233430A9C4646089A0121B5
:103390001A4458469844089200F020FC05465EB155
:1033A000089B002B08DDB342089AA8BF3346A8EB60
:1033B0000308F61AD31A08930A9BF3B10B9B002B50
:1033C00000F0BD808CB129462246584600F0BEFC74
:1033D0004A4601460546584600F016FC4946069006
:1033E000584600F047FB069B99460A9B1A1B04D0DF
:1033F0004946584600F0AAFC81460121584600F093
:10340000EDFB0F9B0446002B00F0CE811A460146CF
:10341000584600F09BFC099B012B044600F3958065
:10342000049B002B40F08D80059BC3F31303002BFE
:1034300040F08980059B23F000431B0D1B052BB139
:10344000089B0133089308F1010801230A930F9B9D
:10345000002B00F0AF81236904EB8303186900F0AF
:1034600071FBC0F12000089B184410F01F0077D0BA
:10347000C0F12003042B6BDD089BC0F11C0003444A
:10348000804406440893B8F1000F05DD49464246E2
:10349000584600F0B5FC8146089B002B05DD21460F
:1034A0001A46584600F0ACFC0446129B002B59D03B
:1034B0002146484600F010FD002853DA7B1E069393
:1034C000494600230A22584600F0F6FA0B9B814633
:1034D000002B00F07181002329460A22584600F093
:1034E000EBFA009B002B054667DC099B022B41DCB5
:1034F00063E0169BC3F1360346E700BF0000E03FE0
:1035000000002440039B5C1E0A9BA34209DB1C1B9A
:10351000039B002BBFF639AF039BA8EB03060023E8
:1035200034E70A9B0F9A0A94E31A1A440F92039BFA
:10353000464600242AE70A9C0B9D46462FE70A9A36
:1035400056E7002382E7049B80E700230A9382E783
:1035500099D0089A1C331A4498441E44089292E762
:103560000346F6E7039B0697002B20DC0093099B9C
:10357000022B1EDD009B002B7FF4C2AD21460522ED
:10358000584600F099FA01460446484600F0A4FC6B
:1035900000287FF7B5AD5646312306F8013B069B60
:1035A00001330693B0E5039C06972546F3E7039B9A
:1035B00000930B9B002B00F00381002E05DD2946B4
:1035C0003246584600F01CFC05460A9B002B5AD098
:1035D0006968584600F00EFA064628B9834B024641
:1035E00040F2EF21FFF763BB2A690232920005F136
:1035F0000C010C3000F0A6FF01223146584600F0C5
:10360000FFFB0AF101030393009B53440B93049BBC
:1036100003F001032F460A930546039B2146013B15
:1036200048460093FFF7A3FA3946049000F13008AA
:10363000484600F051FC2A4608902146584600F0C2
:1036400067FCC268064602BB0146484600F044FCDF
:103650000246314658460E9200F00CFA099B0E9A2B
:10366000039E42EA03010A9B194310D1B8F1390FB6
:1036700029D0089B002B02DD049B03F13108009B3D
:1036800083F8008041E52846BBE70122E1E7089B7B
:10369000002B04DB09990B430A990B4320D1002A24
:1036A000EDDD49460122584600F0AAFB214681463D
:1036B00000F012FC002803DCE1D118F0010FDED08D
:1036C000B8F1390FD8D1009A3923137033461E460A
:1036D000013B16F8012C392A51D001321A7014E539
:1036E000002A07DDB8F1390FEDD0009A08F1010387
:1036F00013700AE5039B0B9A03F8018C934228D0C0
:10370000494600230A22584600F0D6F9AF428146C6
:103710004FF000034FF00A023946584607D100F037
:10372000CBF907460546039B0133039375E700F089
:10373000C3F92946074600230A22584600F0BCF97F
:103740000546F0E7009B002BCCBF1E4601265644E1
:10375000002749460122584600F052FB2146814687
:1037600000F0BAFB0028B1DC02D118F0010FADD196
:1037700033461E4613F8012D302AFAD0C5E49A4587
:10378000A5D1069B0133069331238AF80030BCE4AF
:10379000239BDFF85CA01BB10AF10803239A136096
:1037A000504619B0BDE8F08F099B012B7FF738AE6A
:1037B0000F9B0A93012056E6009B002B7FF7D7AEA4
:1037C000564621464846FFF7D2F900F1300806F880
:1037D000018B009BA6EB0A029342B3DD494600230E
:1037E0000A22584600F068F98146EAE72F4D0008A2
:1037F000964C000838B50546002941D051F8043CE4
:103800000C1F002BB8BFE41800F0E8F81D4A13683D
:1038100033B9636014602846BDE8384000F0E4B86E
:10382000A34208D9206821188B4201BF19685B6840
:1038300009182160EDE71A465B680BB1A342FAD97B
:1038400011685018A0420BD12068014450188342DF
:103850001160E0D118685B68536008441060DAE7D3
:1038600002D90C232B60D6E7206821188B4204BFB5
:1038700019685B68636004BF091821605460CAE777
:1038800038BD00BFF4030020024B0146186800F069
:1038900025B800BF8800002070B50F4E0C46316877
:1038A000054611B900F03EFE30602146284600F082
:1038B00039FE431C03D14FF0FF34204670BDC41CB9
:1038C00024F00304A042F8D0211A284600F02AFE72
:1038D0000130F2D1EFE700BFF00300202DE9F843FB
:1038E000CD1C25F0030508350C2D38BF0C25002D07
:1038F000064601DBA94204D90C2333600020BDE851
:10390000F883DFF8D48000F069F8D8F800301C465E
:1039100044BB29463046FFF7BFFF431C044658D13D
:10392000D8F800402746002F43D1002C4BD0236805
:103930003946304604EB030900F0F4FD814542D1DD
:1039400021686D1A29463046FFF7A6FF01303AD0AC
:1039500023682B442360D8F800305A6862BBC8F84B
:1039600000700FE02268521B20D40B2A17D961196E
:10397000A342256018BF5960636808BFC8F80010EB
:1039800062514B60304600F02FF804F10B00231D0C
:1039900020F00700C21A1CBF1B1AA350AFE76268D1
:1039A000A3420CBFC8F800205A60EBE723466468C6
:1039B000AEE73C467F68B6E71A465B68A342FBD198
:1039C00000235360DEE70C233360304600F00CF830
:1039D00094E70560D6E700BFF40300200148FFF735
:1039E000C4B800BFEC0300200148FFF7BFB800BF18
:1039F000EC03002070B5C66904460D4676B9102068
:103A0000FFF742FF0246E06120B9184B18486B21CE
:103A100000F0A6FDC0E901660660C660E669F368CD
:103A200083B1E369DB6853F82500B8B9012101FAD5
:103A300005F6721D9200204600F0B0FD60B1C0E9AD
:103A400001560EE021220421204600F0A7FDE36983
:103A5000F060DB68002BE4D1002070BD026843F801
:103A600025200023C0E90333F7E700BFA34C00087B
:103A7000404D000870B5C66905460C4676B9102061
:103A8000FFF702FF0246E86120B9094B09488F2180
:103A900000F066FDC0E901660660C6603CB1EB69F6
:103AA0006268DB6853F82210216043F8224070BD41
:103AB000A34C0008404D00082DE9F0410D69074670
:103AC0000C461E4601F1140C0020DCF8003099B2BF
:103AD00002FB01611E0C0B0C02FB063389B20130A4
:103AE00001EB034185424CF8041B4FEA1346ECDC22
:103AF0000EB3A368AB4219DC616838460131FFF7A9
:103B000079FF804628B902460C4B0D48BA2100F0D7
:103B100027FD2269023204F10C0192000C3000F002
:103B200011FD21463846FFF7A5FF444604EB850307
:103B300001355E6125612046BDE8F0812F4D00080A
:103B4000404D0008B0F5803F034636BF0304002017
:103B50001020B3F1807F3CBF1B020830B3F1805FBF
:103B60003CBF1B010430B3F1804F3CBF9B000230CF
:103B7000002B05DB13F0804F00F1010008BF20206F
:103B800070470368024613F007000BD0D90721D411
:103B9000980749BF5B089B08012013605CBF136056
:103BA0000220704799B209B91B0C1020D9B209B98B
:103BB00008301B0A190704BF1B090430990704BF0A
:103BC0009B080230D90703D45B0800F1010003D041
:103BD00013607047002070472020704710B50C46D6
:103BE0000121FFF707FF024628B9054B054840F2BF
:103BF000451100F0B5FC01234461036110BD00BF15
:103C00002F4D0008404D00082DE9F04F17460A6976
:103C10003B699A42A8BF3B468946A4BF0F469946D6
:103C20003D69D9F810A0BB68796805EB0A06B34274
:103C300085B0B8BF0131FFF7DDFE30B90246414B18
:103C400041484FF4B17100F08BFC00F1140404EB17
:103C5000860E23460022734520D307F1140809F18C
:103C6000140108EB850501EB8A030293EB1B153B5E
:103C700023F0030304331537BD4238BF04230193F7
:103C8000029B03918B420CD8002E03DD5EF8043DAD
:103C9000002B55D0066105B0BDE8F08F43F8042B2A
:103CA000D9E7B1F800A0BAF1000F1FD0C446A14671
:103CB00000275CF8042BD9F800301FFA82FB9BB276
:103CC0000AFB0B333B44D9F80070120C3F0C0AFB83
:103CD000027202EB13429BB243EA0243654549F884
:103CE000043B4FEA1247E4D8019BE750039BB3F82B
:103CF00002900431B9F1000F20D023684746A44652
:103D00004FF0000AB7F800B0BCF8022009FB0B2204
:103D100052449BB243EA02434CF8043B57F8043B3D
:103D20004FEA134ABCF8003009FB0A3303EB124395
:103D3000BD424FEA134AE5D8019AA35004349FE7E5
:103D4000013EA1E72F4D0008404D00082DE9F84342
:103D5000154612F0030207460E4607D0254C013ADD
:103D6000002354F82220FFF7A7FE0646AD103DD0F1
:103D7000FC697CB91020FFF787FD0246F86128B97D
:103D80001D4B1E4840F2B31100F0EAFBC0E90144AC
:103D90000460C460D7F81C80D8F808404CB940F2E1
:103DA00071213846FFF71AFF0023C8F808000446BF
:103DB00003604FF00009EB070AD53146224638462A
:103DC000FFF722FF314680463846FFF753FE46464E
:103DD0006D100BD0206838B9224621463846FFF7CF
:103DE00013FF2060C0F800900446E4E73046BDE8C9
:103DF000F88300BF104E0008A34C0008404D000897
:103E00002DE9F0470C464968236903EB6218A36863
:103E1000074691464FEA621A08F10106B3420BDBEE
:103E20003846FFF7E7FD054648B90246284B2948C2
:103E30004FF4EF7100F094FB01315B00EEE70023DB
:103E400000F1140100F110021846534533DB2069DC
:103E50002AEAEA7A04F1140319F01F0901EB8A0136
:103E600003EB800C2BD0C9F1200E8A460022186883
:103E700000FA09F010434AF8040B53F8042B9C4550
:103E800022FA0EF2F3D8ACEB0403153B23F0030344
:103E9000043304F11500604588BF0423CA500AB1F9
:103EA00008F10206013E38462E612146FFF7E2FD89
:103EB0002846BDE8F08742F8040F0133C5E704390E
:103EC00053F8042B41F8042F9C45F9D8EAE700BFCA
:103ED0002F4D0008404D00080A6903460069801A0A
:103EE00030B50ED11433143103EB820401EB82019F
:103EF00054F8045D51F8042D954203D005D24FF0DB
:103F0000FF3030BDA342F3D3FBE70120F9E7000007
:103F10002DE9F74F89460646114648461446FFF7F5
:103F2000DBFF051E12D129463046FFF763FD02462E
:103F300028B93F4B40F237213E4800F011FB0123E6
:103F4000C0E90435104603B0BDE8F08FBCBF4B4656
:103F5000A1463046D9F80410BABF1C4601250025F9
:103F6000FFF748FD024618B9314B40F24521E3E71F
:103F7000D9F810702669C56009F1100309F114051C
:103F800004F1140E00F1140B05EB87080EEB860606
:103F90000193D9464FF0000C019B5EF8040B53F8D7
:103FA00004AF01931FFA8AF3194683B2CB1A000CAF
:103FB0006344C0EB1A4000EB23409BB243EA00434A
:103FC000764549F8043B4FEA204CE5D8331B153BB6
:103FD00023F0030315340433A64238BF04231D44E1
:103FE0005B441E462C4644450ED308F10301491B91
:103FF00021F00301033DA84538BF00210B4453F8CD
:10400000041D91B117619DE754F8041BE646080CA6
:104010001CFA81FC714400EB2C4089B241EA00415A
:1040200046F8041B4FEA204CDDE7013FE7E700BFFD
:104030002F4D0008404D00082DE9F7430F460121A0
:1040400059EC108B1646FFF7D5FC044630B90246F2
:10405000234B244840F20F3100F082FAC9F30A558D
:10406000C9F313030DB143F480130193B8F10003B6
:1040700023D068460093FFF784FDDDE90012D0B13C
:10408000C0F1200302FA03F30B43C24063610192C3
:10409000019BA361002B0CBF012202222261A5B16A
:1040A000A5F2334505443D60C0F13500306020463F
:1040B00003B0BDE8F0836161EAE701A8FFF761FDA5
:1040C000019B636120300122E8E704EB8203A0F248
:1040D000324038601869FFF735FDC0EB4210E5E764
:1040E0002F4D0008404D00082DE9F0478E681F460F
:1040F000BE420B6882460C4690462DD8B1F90C2082
:1041000012F4906F26D06569096905EB4505A3EBAC
:10411000010905EBD5757B1C4B446D109D4238BFE2
:104120001D46530527D52946FFF7D8FB064660B341
:1041300021694A4600F006FAA38923F4906343F00C
:104140008003A381266165614E44A5EB09052660C5
:10415000A5603E46BE4200D93E46206832464146F2
:1041600000F0C6F9A3689B1BA36023683344236057
:104170000020BDE8F0872A4600F036FA06460028FF
:10418000E0D121695046FFF735FB0C23CAF8003017
:10419000A38943F04003A3814FF0FF30E9E700001B
:1041A0002DE9F04F98468B891B069DB007460D46BA
:1041B000144610D50B6973B94021FFF78FFB2860B7
:1041C000286130B90C233B604FF0FF301DB0BDE8D3
:1041D000F08F40236B610023099320238DF8293051
:1041E000CDF80C803023DFF89C818DF82A304FF019
:1041F000010923469A4613F8012B0AB1252AF9D161
:10420000BAEB040B0BD05B46224629463846FFF733
:104210006BFF013000F0A780099A5A4409929AF87E
:104220000030002B00F09F8000234FF0FF32CDE9DB
:1042300005230AF1010A049307938DF853301A936A
:104240005446052214F8011B4E48FBF7A9FF049AB7
:10425000D8B9D00644BF20238DF85330110744BF8E
:104260002B238DF853309AF800302A2B15D0079A5B
:10427000544600204FF00A0C214611F8013B303B18
:10428000092B4BD9B0B1079214E0A0EB080309FA4F
:1042900003F313430493A246D2E7039B191D1B6843
:1042A0000391002BBBBF5B4242F0020207930793CE
:1042B000B8BF049223782E2B0AD163782A2B32D1EF
:1042C000039B1A1D1B68039243EAE37302340593B0
:1042D000DFF8C0A0217803225046FBF761FF38B118
:1042E000049BA0EB0A004022824013430134049354
:1042F00014F8011B24488DF828100622FBF750FF04
:10430000002836D0214B1BBB039B073323F0070348
:1043100008330393099B334409936AE70CFB023289
:104320000C460120A8E700230134059319464FF0FD
:104330000A0C204610F8012B303A092A03D9002B29
:10434000C6D00591C4E70CFB012104460123F0E728
:1043500003AB00932A460E4B04A93846FDF7ACFE8A
:10436000421C0646D6D1AB895B063FF52DAF0998B6
:104370002CE703AB00932A46054B04A93846FEF709
:1043800033F9EDE7B64D0008C04D0008B92000082C
:10439000E9400008BC4D0008B1F90C202DE9F041BE
:1043A000160705460C4654D44B68002B02DC0B6CF8
:1043B000002B48DDE66A002E45D0002312F480521F
:1043C0002F68216A2B6030D0626DA389590705D50B
:1043D0006368D21A636B0BB1236CD21A0023E66AAE
:1043E000216A2846B047431CA38906D129681D29A4
:1043F0002BD82A4ACA40D60727D500226260D904A2
:104400002269226004D5421C01D12B6803B9606582
:10441000616B2F60B9B104F14403994202D0284680
:10442000FFF7E8F9002363630DE001232846B04756
:104430000246501CC9D12B68002BC6D01D2B01D0C1
:10444000162B1ED12F60002022E043F040031BB248
:104450001BE00F69002FF6D093070E6808BF4B6969
:104460000F6018BF0023A6EB07088B60B8F1000FA0
:10447000E9DD216AA66A43463A462846B047002845
:1044800008DCB4F90C3043F04003A3814FF0FF3057
:10449000BDE8F0810744A8EB0008E7E701004020F1
:1044A00038B50B6905460C4613B90025284638BDBA
:1044B00018B1036A0BB9FEF741FAB4F90C30002BBE
:1044C000F3D0626ED00704D4990502D4A06DFEF734
:1044D0004CFB28462146FFF75FFF636EDA0705466F
:1044E000E4D4A3899B05E1D4A06DFEF73FFBDDE793
:1044F000884210B501EB020402D98442234607D852
:10450000431EA14208D011F8012B03F8012FF8E750
:10451000024401468A4200D110BD13F8014D02F851
:10452000014DF7E738B5064D0023044608462B60D9
:10453000FCF7D6FB431C02D12B6803B1236038BDC6
:10454000E80300200A44914200F1FF3300D1704794
:1045500010B511F8014B03F8014F9142F9D110BD8C
:104560001FB514461A46094B1B680546D8684CB15E
:10457000074B0091CDE9013406492B4600F070F855
:1045800000F080F8044B1C46F3E700BF88000020D1
:10459000D14D0008DE4D00080C4E000870B5A1FB9F
:1045A000025434B92946FFF799F9064628B930462E
:1045B00070BD0C2202600026F9E72A462146FEF76C
:1045C00056FAF4E782B001B901A942B14BB11378B0
:1045D0000B601278101E18BF012002B07047104601
:1045E000FBE76FF00100F8E72DE9F04107461446BC
:1045F0000D4621B9BDE8F0411146FFF76FB92AB960
:10460000FFF7F8F825462846BDE8F08100F041F8AC
:104610008442064602D8B4EB500FF4D821463846FF
:10462000FFF75CF9804608B94546ECE7B4422246FC
:10463000294628BF3246FFF785FF29463846FFF74F
:10464000D9F8F1E70346084641B1FF2A04D98A2286
:104650001A604FF0FF3070470A7001207047000069
:104660000EB403B5014603AB054853F8042B0068AC
:10467000019300F03FF802B05DF804EB03B070471F
:104680008800002008B5062000F008FA0120FCF799
:10469000F7FA51F8043C181F002BBCBF0B58C01888
:1046A00070479368013B002B10B4936008DA94695B
:1046B000A34201DB0A2903D15DF8044B00F032B9B3
:1046C0001368581C1060197008465DF8044B704759
:1046D000F8B506460F461446D518AC4201D1002065
:1046E00007E014F8011B3A463046FFF7DAFF431C97
:1046F000F3D1F8BD2DE9F04F0D469DB01446984614
:10470000064618B1036A0BB9FEF718F96B6ED907A4
:1047100005D4AB899A0502D4A86DFEF726FAAB89B9
:104720001B0701D52B699BB92946304600F038F9A3
:1047300070B16B6EDC0704D54FF0FF301DB0BDE8E3
:10474000F08FAB899805F7D4A86DFEF70FFAF3E761
:104750000023099320238DF82930CDF80C803023D5
:10476000DFF8AC818DF82A304FF0010923469A46D4
:1047700013F8012B0AB1252AF9D1BAEB040B0BD09F
:104780005B46224629463046FFF7A2FF013000F083
:10479000A780099A5A4409929AF80030002B00F039
:1047A0009F8000234FF0FF32CDE905230AF1010A73
:1047B000049307938DF853301A935446052214F846
:1047C000011B5348FBF7ECFC049AD8B9D10644BF4F
:1047D00020238DF85330130744BF2B238DF853301B
:1047E0009AF800302A2B15D0079A544600204FF033
:1047F0000A0C214611F8013B303B092B4BD9B0B1D3
:10480000079214E0A0EB080309FA03F3134304939F
:10481000A246D2E7039B191D1B680391002BBBBF67
:104820005B4242F0020207930793B8BF04922378D9
:104830002E2B0AD163782A2B32D1039B1A1D1B68B9
:10484000039243EAE37302340593DFF8D4A021789E
:1048500003225046FBF7A4FC38B1049BA0EB0A00EE
:104860004022824013430134049314F8011B294869
:104870008DF828100622FBF793FC00283FD0264B2A
:104880001BBB039B073323F0070308330393099BE8
:104890003B4409936AE70CFB02320C460120A8E76F
:1048A00000230134059319464FF00A0C204610F8F6
:1048B000012B303A092A03D9002BC6D00591C4E751
:1048C0000CFB012104460123F0E703AB00932A46C9
:1048D000124B04A93046FDF7EFFB0746781CD6D1F2
:1048E0006B6ED90705D4AB899A0502D4A86DFEF783
:1048F0003DF9AB895B063FF51FAF09981EE703AB97
:1049000000932A46054B04A93046FDF76DFEE4E707
:10491000B64D0008C04D0008B9200008D146000877
:10492000BC4D0008F8B50E461446054618B1036A9A
:104930000BB9FEF703F8A369A360A3891A0701D591
:10494000236943B92146284600F02AF818B14FF0F0
:10495000FF373846F8BD23682269981A6369F6B2B2
:104960008342374605DC21462846FFF799FD00289B
:10497000EDD1A368013BA36023685A1C22601E701E
:104980006269431C9A4204D0A389DB07E1D50A2E51
:10499000DFD121462846FFF783FD0028D9D0D6E78E
:1049A00038B5294B054618680C4618B1036A0BB98F
:1049B000FDF7C4FFB4F90C30190722D4DA0607D486
:1049C00009222A6043F04003A3814FF0FF3033E017
:1049D000580712D5616B41B104F14403994202D0EA
:1049E0002846FEF707FF00236363A38923F024030F
:1049F000A3810023636023692360A38943F0080334
:104A0000A38123694BB9A38903F42073B3F5007F15
:104A100003D02146284600F083F8B4F90C3013F097
:104A200001020AD00022A26062695242A261226998
:104A300042B913F08000C5D138BD990758BF6269EB
:104A4000A260F4E70020F7E7880000201F2938B5AE
:104A500005460C4604D9162303604FF0FF3038BDDD
:104A6000C26B12B152F821304BB9284600F030F831
:104A7000224601462846BDE8384000F017B8012B11
:104A80000AD0591C03D1162303600120E7E7002157
:104A900042F82410204698470020E0E7024B0146E8
:104AA0001868FFF7D3BF00BF8800002038B5074D56
:104AB00000230446084611462B60FCF7D9F8431C36
:104AC00002D12B6803B1236038BD00BFE80300208A
:104AD000FCF7CCB870B50C46B1F90E10002996B0B1
:104AE00015461E460DDAA38913F0800F4FF0000122
:104AF00014BF40234FF48063002031602B6016B058
:104B000070BD6A4600F048F80028ECDB019901F41A
:104B10007041A1F50053594259414FF48063EBE7CE
:104B20008B89F7B59D0706460C4607D504F1470368
:104B3000236023610123636103B0F0BD01AB6A46CA
:104B4000FFF7C8FF009F054639463046FEF7C6FE10
:104B500048B9B4F90C309A05EED423F0030343F0BE
:104B60000203A381E2E7A389206043F08003A381CD
:104B7000019BC4E904075BB1B4F90E10304600F0A4
:104B80001DF828B1A38923F0030343F00103A38197
:104B9000A3891D43A581CFE738B5074D00230446FF
:104BA000084611462B60FCF792F8431C02D12B6893
:104BB00003B1236038BD00BFE803002038B5064DBF
:104BC0000023044608462B60FCF786F8431C02D1FC
:104BD0002B6803B1236038BDE8030020F8B500BF9F
:104BE000F8BC08BC9E467047F8B500BFF8BC08BCCE
:044BF0009E46704726
:104BF80055415254204F4B0D0A0000004D5055208E
:104C08004E4F5420464F554E440D0A004D505520E6
:104C18004F4B0D0A000000004D50552043414C49B0
:104C28004252415445440D0A000000005961773A48
:104C38002025362E3166C2B0207C20526174653A38
:104C4800202564C2B02F73207C204F66667365747C
:104C58003A2025362E33660D0A00494E4600696E05
:104C680066004E414E006E616E00300030313233C6
:104C780034353637383941424344454600303132BD
:104C88003334353637383961626364656600496E96
:104C980066696E697479004E614E005245454E54FE
:104CA800206D616C6C6F6320737563636565646503
:104CB80064002F5F5F772F61726D2D6E6F6E652DAB
:104CC800656162692D6763632D787061636B2F611D
:104CD800726D2D6E6F6E652D656162692D676363F8
:104CE8002D787061636B2F6275696C642F77696EBC
:104CF80033322D7836342F736F75726365732F6E68
:104D080065776C69622D63796777696E2F6E657751
:104D18006C69622F6C6962632F7374646C69622FAB
:104D280064746F612E630042616C6C6F63207375ED
:104D380063636565646564002F5F5F772F61726DDB
:104D48002D6E6F6E652D656162692D6763632D78C1
:104D58007061636B2F61726D2D6E6F6E652D65616D
:104D680062692D6763632D787061636B2F62756963
:104D78006C642F77696E33322D7836342F736F75E4
:104D8800726365732F6E65776C69622D63796777D7
:104D9800696E2F6E65776C69622F6C6962632F7319
:104DA80074646C69622F6D707265632E6300232DC5
:104DB800302B2000686C4C00656667454647004309
:104DC80000504F534958002E002C2066756E6374AE
:104DD800696F6E3A2000617373657274696F6E2033
:104DE80022257322206661696C65643A2066696CC5
:104DF8006520222573222C206C696E652025642588
:104E08007325730A00000000050000001900000067
:104E18007D000000000000000080E03779C34143B6
:104E2800176E05B5B5B89346F5F93FE9034F384D08
:104E3800321D30F94877825A3CBF737FDD4F1575B4
:104E4800000000000000F03F0000000000002440C7
:104E580000000000000059400000000000408F40A2
:104E6800000000000088C34000000000006AF8400D
:104E78000000000080842E4100000000D012634131
:104E88000000000084D797410000000065CDCD41A7
:104E9800000000205FA00242000000E87648374288
:104EA800000000A2941A6D42000040E59C30A24226
:104EB8000000901EC4BCD64200003426F56B0C439B
:104EC8000080E03779C3414300A0D8855734764342
:104ED80000C84E676DC1AB43003D9160E458E143A3
:104EE800408CB5781DAF154450EFE2D6E41A4B4418
:104EF80092D54D06CFF08044F64AE1C7022DB5445D
:104F0800B49DD9794378EA4400202020202020202D
:104F18002020282828282820202020202020202061
:104F28002020202020202020208810101010101071
:104F380010101010101010101004040404040404BD
:104F48000404041010101010101041414141414157
:104F58000101010101010101010101010101010139
:104F68000101010110101010101042424242424249
:104F78000202020202020202020202020202020209
:104F880002020202101010102000000000000000B1
:104F98000000000000000000000000000000000009
:104FA80000000000000000000000000000000000F9
:104FB80000000000000000000000000000000000E9
:104FC80000000000000000000000000000000000D9
:104FD80000000000000000000000000000000000C9
:104FE80000000000000000000000000000000000B9
:104FF80000000000000000000000000000000000A9
:0C5008000000000000000000000000009C
:085014008CB1FF7F01000000D8
:04501C003D0C00083F
:04502000190C00085F
:10502400000020410000803F0000003F000000001D
:10503400000000006666DE41000000003333933F49
:10504400000000000000000033335B413333F33FC2
:10505400CDCCCC3D0000000000000000000000406A
:10506400000000000000000000000000000000003C
:1050740000007A4300000000666602410000000060
:105084000000000033335B413333F33FCDCCCC3DE0
:105094000000000000000000BC020000000000004E
:1050A40003000000AC0200208C000020000000007F
:1050B400AC020020140300207C0300200000000048
:1050C40000000000000000000000000000000000DC
:1050D40000000000000000000000000000000000CC
:1050E40000000000000000000000000000000000BC
:1050F4000000000000000000430000000000000069
:10510400000000000000000000000000000000009B
:105114000000000000000000430000000000000048
:10512400000000000000000000000000000000007B
:105134000000000000000000430000000000000028
:10514400000000000000000000000000000000005B
:105154000000000000000000430000000000000008
:10516400000000000000000000000000000000003B
:1051740000000000000000004300000000000000E8
:10518400000000000000000000000000000000001B
:1051940000000000000000004300000000000000C8
:1051A40000000000000000000000000000000000FB
:1051B40000000000000000004300000000000000A8
:1051C40000000000000000000000000000000000DB
:1051D400000000000000000045460008C545000826
:1051E40000000000104F0008CF4D00080C4E0008CE
:1051F4000C4E00080C4E00080C4E00080C4E000823
:105204000C4E00080C4E00080C4E00080C4E000812
:10521400FFFFFFFFFFFFFFFFFFFFFFFFFFFF000098
:105224000100415343494900000000000000000010
:10523400000000000000000000000000000000006A
:1052440000004153434949000000000000000000F1
:10525400000000000000000000000000000000004A
:045264000000000046
:0400000508001F29A7
:00000001FF
