:020000040800F2
:1000000000000220FD1300084D1400084D140008E4
:100010004D1400084D1400084D14000800000000A5
:100020000000000000000000000000004D14000867
:100030004D140008000000004D140008710E000867
:100040004D1400084D1400084D1400084D1400080C
:100050004D1400084D1400084D1400084D140008FC
:100060004D1400084D1400084D1400084D140008EC
:100070004D1400084D1400084D1400084D140008DC
:100080004D1400084D1400084D1400080000000035
:10009000000000000000000000000000350F000814
:1000A0004D1400084D1400084D1400084D140008AC
:1000B0004D1400084D1400084D1400084D1400089C
:1000C0004D1400084D1400084D1400084D1400088C
:1000D0004D1400084D1400084D14000800000000E5
:1000E000BD0E00084D1400084D140008000000006B
:1000F0000000000000000000000000004D14000897
:10010000000000004D1400084D1400084D140008B4
:1001100000000000000000000000000000000000DF
:100120004D1400084D1400084D1400084D1400082B
:100130004D14000800000000000000000000000056
:100140000000000000000000000000004D14000846
:100150004D1400084D1400084D1400084D140008FB
:100160004D1400084D1400080000000000000000BD
:10017000000000000000000000000000000000007F
:10018000000000004D140008000000000000000006
:080190004D1400084D14000895
:1001980081F0004102E000BF83F0004330B54FEA30
:1001A80041044FEA430594EA050F08BF90EA020F9D
:1001B8001FBF54EA000C55EA020C7FEA645C7FEA30
:1001C800655C00F0E2804FEA5454D4EB5555B8BF53
:1001D8006D420CDD2C4480EA020281EA030382EAC4
:1001E800000083EA010180EA020281EA0303362D56
:1001F80088BF30BD11F0004F4FEA01314FF4801C29
:100208004CEA113102D0404261EB410113F0004F3A
:100218004FEA03334CEA133302D0524263EB4303F1
:1002280094EA050F00F0A780A4F10104D5F1200E8F
:100238000DDB02FA0EFC22FA05F2801841F10001EA
:1002480003FA0EF2801843FA05F359410EE0A5F1BE
:1002580020050EF1200E012A03FA0EFC28BF4CF0EF
:10026800020C43FA05F3C01851EBE37101F00045A5
:1002780007D54FF0000EDCF1000C7EEB00006EEBB2
:100288000101B1F5801F1BD3B1F5001F0CD349083C
:100298005FEA30004FEA3C0C04F101044FEA445293
:1002A80012F5800F80F09A80BCF1004F08BF5FEA1A
:1002B800500C50F1000041EB045141EA050130BDFA
:1002C8005FEA4C0C404141EB0101013C28BFB1F50C
:1002D800801FE9D291F0000F04BF01460020B1FA57
:1002E80081F308BF2033A3F10B03B3F120020CDA2A
:1002F8000C3208DD02F1140CC2F10C0201FA0CF008
:1003080021FA02F10CE002F11402D8BFC2F1200C6C
:1003180001FA02F120FA0CFCDCBF41EA0C01904022
:10032800E41AA2BF01EB0451294330BD6FEA04046B
:100338001F3C1CDA0C340EDC04F11404C4F1200256
:1003480020FA04F001FA02F340EA030021FA04F368
:1003580045EA030130BDC4F10C04C4F1200220FABF
:1003680002F001FA04F340EA0300294630BD21FAFD
:1003780004F0294630BD94F0000F83F4801306BFC3
:1003880081F480110134013D4EE77FEA645C18BFB7
:100398007FEA655C29D094EA050F08BF90EA020F4E
:1003A80005D054EA000C04BF1946104630BD91EA46
:1003B800030F1EBF0021002030BD5FEA545C05D149
:1003C8004000494128BF41F0004130BD14F5800488
:1003D8003CBF01F5801130BD01F0004545F0FE41FC
:1003E80041F470014FF0000030BD7FEA645C1ABF31
:1003F800194610467FEA655C1CBF0B46024650EA68
:10040800013406BF52EA033591EA030F41F4002193
:1004180030BD00BF90F0000F04BF0021704730B519
:100428004FF4806404F132044FF000054FF00001EE
:1004380050E700BF90F0000F04BF0021704730B5AF
:100448004FF4806404F1320410F0004548BF404284
:100458004FF000013EE700BF42004FEAE2014FEAD9
:1004680031014FEA02701FBF12F07F4393F07F4FB4
:1004780081F06051704732F07F4208BF704793F0B7
:100488007F4F04BF41F40021704730B54FF46074CA
:1004980001F0004521F000411CE700BF50EA0102CD
:1004A80008BF704730B54FF000050AE050EA010276
:1004B80008BF704730B511F0004502D5404261EBE6
:1004C80041014FF4806404F132045FEA915C3FF427
:1004D800D8AE4FF003025FEADC0C18BF03325FEAC4
:1004E800DC0C18BF033202EBDC02C2F1200300FA75
:1004F80003FC20FA02F001FA03FE40EA0E0021FA9A
:1005080002F11444BDE600BF70B54FF0FF0C4CF487
:10051800E06C1CEA11541DBF1CEA135594EA0C0F39
:1005280095EA0C0F00F0DEF82C4481EA030621EA74
:100538004C5123EA4C5350EA013518BF52EA0335AF
:1005480041F4801143F4801338D0A0FB02CE4FF061
:100558000005E1FB02E506F00042E0FB03E54FF091
:100568000006E1FB03569CF0000F18BF4EF0010E89
:10057800A4F1FF04B6F5007F64F5407404D25FEA85
:100588004E0E6D4146EB060642EAC62141EA555138
:100598004FEAC52040EA5E504FEACE2EB4F1FD0C7A
:1005A80088BFBCF5E06F1ED8BEF1004F08BF5FEAF8
:1005B800500E50F1000041EB045170BD06F00046AA
:1005C80046EA010140EA020081EA0301B4EB5C0457
:1005D800C2BFD4EB0C0541EA045170BD41F480114F
:1005E8004FF0000E013C00F3AB8014F1360FDEBF74
:1005F800002001F0004170BDC4F10004203C35DA50
:100608000C341BDC04F11404C4F1200500FA05F3D2
:1006180020FA04F001FA05F240EA020001F0004273
:1006280021F0004110EBD37021FA04F642EB0601E9
:100638005EEA430E08BF20EAD37070BDC4F10C0413
:10064800C4F1200500FA04F320FA05F001FA04F2D7
:1006580040EA020001F0004110EBD37041F10001C3
:100668005EEA430E08BF20EAD37070BDC4F12005CE
:1006780000FA05F24EEA020E20FA04F301FA05F236
:1006880043EA020321FA04F001F0004121FA04F2DE
:1006980020EA020000EBD3705EEA430E08BF20EAAE
:1006A800D37070BD94F0000F0FD101F000464000E8
:1006B80041EB010111F4801F08BF013CF7D041EA6A
:1006C800060195F0000F18BF704703F0004652006E
:1006D80043EB030313F4801F08BF013DF7D043EA3F
:1006E8000603704794EA0C0F0CEA135518BF95EAF5
:1006F8000C0F0CD050EA410618BF52EA4306D1D17C
:1007080081EA030101F000414FF0000070BD50EA9A
:10071800410606BF1046194652EA430619D094EA24
:100728000C0F02D150EA013613D195EA0C0F05D10E
:1007380052EA03361CBF104619460AD181EA030162
:1007480001F0004141F0FE4141F470014FF000001A
:1007580070BD41F0FE4141F4780170BD70B54FF0B5
:10076800FF0C4CF4E06C1CEA11541DBF1CEA135535
:1007780094EA0C0F95EA0C0F00F0A7F8A4EB050417
:1007880081EA030E52EA03354FEA013100F088800E
:100798004FEA03334FF0805545EA131343EA1263D7
:1007A8004FEA022245EA111545EA10654FEA00268C
:1007B8000EF000419D4208BF964244F1FD0404F545
:1007C800407402D25B084FEA3202B61A65EB0305A1
:1007D8005B084FEA32024FF480104FF4002CB6EB5E
:1007E800020E75EB030E22BFB61A754640EA0C00DE
:1007F8005B084FEA3202B6EB020E75EB030E22BF1E
:10080800B61A754640EA5C005B084FEA3202B6EB5E
:10081800020E75EB030E22BFB61A754640EA9C001D
:100828005B084FEA3202B6EB020E75EB030E22BFED
:10083800B61A754640EADC0055EA060E18D04FEAAB
:10084800051545EA16754FEA06164FEAC30343EA4B
:1008580052734FEAC2025FEA1C1CC0D111F4801F18
:100868000BD141EA00014FF000004FF0004CB6E711
:1008780011F4801F04BF01430020B4F1FD0C88BFB0
:10088800BCF5E06F3FF6AFAEB5EB030C04BFB6EBBB
:10089800020C5FEA500C50F1000041EB045170BDAE
:1008A8000EF0004E4EEA113114EB5C04C2BFD4EBDB
:1008B8000C0541EA045170BD41F480114FF0000E5F
:1008C800013C90E645EA060E8DE60CEA135594EADB
:1008D8000C0F08BF95EA0C0F3FF43BAF94EA0C0FDE
:1008E8000AD150EA01347FF434AF95EA0C0F7FF453
:1008F80025AF104619462CE795EA0C0F06D152EAA7
:1009080003353FF4FDAE1046194622E750EA41068A
:1009180018BF52EA43067FF4C5AE50EA41047FF49B
:100928000DAF52EA43057FF4EBAE12E74FEA4102FE
:10093800B2F1E04324BFB3F5001CDCF1FE5C0DD935
:1009480001F0004C4FEAC0024CEA5070B2F1004F7F
:1009580040EB830008BF20F00100704711F0804F82
:1009680021D113F13872BCBF01F00040704741F447
:1009780080114FEA5252C2F11802C2F1200C10FA4B
:100988000CF320FA02F018BF40F001004FEAC1232F
:100998004FEAD32303FA0CFC40EA0C0023FA02F3D3
:1009A8004FEA4303CCE77FEA625307D150EA0133A9
:1009B8001EBF4FF0FE4040F44000704701F0004079
:1009C80040F0FE4040F40000704700BF0348044B6D
:1009D800834202D0034B03B1184770471800002028
:1009E80018000020000000000548064B1B1AD90F0C
:1009F80001EBA301491002D0034B03B1184770471C
:100A080018000020180000200000000010B5064C57
:100A1800237843B9FFF7DAFF044B13B10448AFF367
:100A280000800123237010BD180000200000000082
:100A38009814000808B5054B1BB105490548AFF3E4
:100A48000080BDE80840FFF7CFBF00BF00000000EE
:100A58001C00002098140008034AD2F8883043F498
:100A68007003C2F88830704700ED00E008B5134AFB
:100A7800136B43F006031363A2F54052D36843F0A7
:100A88008073D36000F040F800F0BEF800F028F959
:100A980000F096F800F094F99FED090A00F0E4FBE5
:100AA8004FF47A7000F058FA9FED060A00F056FCF1
:100AB8004FF47A7000F050FAEEE700BF00380240B9
:100AC800000048420000B44200B500F00700C0F141
:100AD800070CBCF1040F28BF4FF0040C031D062BB4
:100AE8000FD9C31E4FF0FF3E0EFA0CF021EA0001A9
:100AF80099400EFA03FE22EA0E0241EA02005DF86E
:100B080004FB0023EEE700002B4A136B43F00203BB
:100B180013632A4B1A6842F480121A605A6822F446
:100B280080625A609A6842F480129A60DA6822F405
:100B38008012DA609A6942F080629A611A6842F417
:100B480080521A605A6822F040025A609A6842F449
:100B580080529A60DA6822F48052DA609A6942F424
:100B680080029A611A6842F480621A605A6822F018
:100B780020025A609A6842F480629A60DA6822F425
:100B88008062DA609A6942F400129A611A6842F443
:100B980080321A605A6822F480725A609A6842F465
:100BA80080329A60DA6822F48032DA609A6942F018
:100BB80080729A61704700BF00380240000402400A
:100BC8004FF0E0231A6922F001021A611A6942F013
:100BD80002021A611A6942F004021A615A6902F0A3
:100BE8007F4242F4BB3242F0FF025A619A6902F036
:100BF8007F4242F4BB3242F0FF029A611A6942F026
:100C080001021A61704700002DE9F0412F4A536C28
:100C180043F4804353642E4E736923F00F0343F06B
:100C2800020373612B4C236843F480532360A36849
:100C380043F48053A360DFF8A480D8F80C000022A6
:100C48001146C0F30220FFF73FFF0001C0B2224D5A
:100C580085F828034FF480776F60336923F00F031A
:100C680043F00203336123683B432360A3683B439B
:100C7800A360D8F80C0000221146C0F30220FFF749
:100C880023FF0001C0B285F817034FF400032B605F
:100C9800736923F0F00343F020037361236843F47E
:100CA80000532360A36843F40053A360D8F80C00F2
:100CB80000221146C0F30220FFF706FF0001C0B270
:100CC80085F828036F60BDE8F08100BF0038024056
:100CD80000380140003C014000E100E000ED00E088
:100CE800354A136823F0F80343F0800313600023A8
:100CF8009360314B9B6813F00C0FFAD12E4A13689E
:100D080023F0807313602C4B1B6813F0007FFAD11B
:100D1800294A136823F410231360274B1B6813F424
:100D2800003FFAD1244B1A6822F480221A601A680C
:100D380042F001021A60204B1B6813F0020FFAD030
:100D48001D4B00225A605A685A605A6842F00802DD
:100D58005A605A6842F4C0525A605A6822F4803283
:100D68005A605A6842F080625A609A6842F00202F9
:100D78009A609A689A609A6842F480529A609A686F
:100D88009A609A6822F040429A609A6822F040423B
:100D98009A609A6842F040529A6008490A6842F09C
:100DA80003020A601A6842F080721A60024B1B68DC
:100DB80013F0007FFAD0704700380240003C024030
:100DC800264B1A6B42F001021A635A6C42F0010278
:100DD8005A64234A136823F4702343F420231360CE
:100DE800536A23F0FF0343F0110353621D4B1A6843
:100DF80022F001021A609A6A6FF30F0242F00502AC
:100E08009A62DA6A40F2E732DA621A6842F08002DD
:100E18001A609A6922F0780242F068029A619A6927
:100E280022F4F04242F4D0429A615A6C42F40042F1
:100E38005A641A6A42F011021A625A6B6FF30F026F
:100E48005A639A6B6FF30F029A635A6942F0010270
:100E58005A611A6842F001021A607047003802406D
:100E680000000240000001400D4A1368013313607E
:100E78000C4A1368013313600B4B1B6813B1013B19
:100E8800094A1360094B1B6813B1013B074A1360F9
:100E9800074B1B8813B1013B054A1380704700BFFD
:100EA8003C000020380000204400002040000020C2
:100EB80036000020174B5B6913F4805F0ED0164B89
:100EC8001B6833B9154A138801331380124B0A2261
:100ED8001A60104A536943F4805353610D4B5B69A0
:100EE80013F4005F14D00E4B1B6913F4005F0AD093
:100EF8000C4B1B883BB90B4B64221A800A4A1378A7
:100F080083F001031370034A536943F40053536198
:100F1800704700BF003C014040000020480000200E
:100F2800000802403600002034000020074A5369B8
:100F380043F480535361064B1B6833B9054A138841
:100F480001331380024B0A221A607047003C0140AB
:100F5800440000204A000020034B1A68024B1B681B
:100F68009B1A8342FAD370473C0000200023024AB0
:100F78001380024A138070474A000020480000206E
:100F8800B4EEE00AF1EE10FA05D4B4EEC10AF1EEBF
:100F980010FA03DC7047B0EE600A7047B0EE410A01
:100FA80070470000014B1868704700BF38000020E8
:100FB80008B50023044A1360044A1360FFF7F2FFE0
:100FC800034B186008BD00BF5400002050000020EB
:100FD8004C000020642800D96420074AD36A03FB28
:100FE80000F0064BA3FB0030536B6FF30F0343EA8B
:100FF80050135363704700BF000001401F85EB5139
:10100800642800D96420074AD36A03FB00F0064B22
:10101800A3FB0030936B6FF30F0343EA5013936302
:10102800704700BF000001401F85EB51034640B9DF
:10103800164A916941F080619161916941F480019A
:101048009161012B04D0022B0CD0032B14D07047D4
:101058000E4A916941F480619161916941F480017E
:101068009161F0E7094A916941F080619161916964
:1010780041F040019161E8E7044B9A6942F48062CB
:101088009A619A6942F040029A61E0E700040240DE
:10109800034640B9164A916941F40011916191697A
:1010A80041F080719161012B04D0022B0CD0032BED
:1010B80014D070470E4A916941F0200191619169FD
:1010C80041F080719161F0E7094A916941F400119A
:1010D8009161916941F480719161E8E7044B9A69E3
:1010E80042F020029A619A6942F480729A61E0E7BC
:1010F8000004024008B50020FFF798FF0020FFF722
:10110800C7FF0020FFF77CFF0020FFF763FF08BD43
:1011180070B52DED068B04460E4609EE902AFFF7B2
:1011280041FF0546374B1868281AFFF773F9002264
:10113800354BFFF713FBFFF7F9FB09EE100AB5EE85
:10114800C09AF1EE10FA5AD9A41B07EE904AB8EEED
:10115800E78A2E4BD3ED008A68EE888A29EE080AC2
:101168002B4CD4ED007A30EE270A84ED000A9FED6F
:10117800291ADFED290AFFF703FF84ED000A274B40
:10118800D3ED007A20EE270A254CD4ED007A78EECC
:10119800677A87EE897A234BD3ED007A67EE877AF0
:1011A80078EE808A78EEA78AB8EEE99A1E4BD3EDDE
:1011B800009A1E4B93ED00AAB0EE4A1AF0EE690AA7
:1011C80039EE680AFFF7DCFEFDEEC07A17EE903ABA
:1011D800174A1370B0EE4A1AF0EE690A39EE280A77
:1011E800FFF7CEFEFDEEC07A17EE903A114A137063
:1011F80084ED008A034B1D60BDEC068B70BD9FED2E
:101208000E9AA1E74C00002000408F400800002003
:10121800500000200000C8420000C8C25C00002046
:101228005400002058000020000000200400002086
:1012380061000020600000200AD7233CF2EE047A07
:1012480020EE270A064B93ED007AC0EE077A9FED51
:10125800057A67EE877AFCEEE77A17EE900A704710
:1012680010000020000020422DE9F0412DED028BF6
:10127800B0EE408AFFF77AFEFFF79AFEB0EE480A12
:10128800FFF7DCFF071E2DDDFFF78CFE804609E027
:101298003346BB4224DAFFF785FE0446A0EB080379
:1012A800092B07D8114B1D88114B1E88B542EFD961
:1012B8002B46EEE70F4B1A6831462846FFF728FF02
:1012C8000220FFF7B3FE0220FFF7E2FE0A4B187870
:1012D800FFF796FE094B1878FFF77CFEA046E1E77A
:1012E800FFF708FFBDEC028BBDE8F0814A00002043
:1012F8004800002014000020610000206000002049
:1013080038B510EE100AFFF7A7F800220F4BFFF7C9
:1013180025FA04460D460E4B1868FFF79DF822463D
:101328002B46FFF7F1F8FFF701FB06EE900A094B91
:1013380093ED007AC6EE877A9FED077A67EE877A93
:10134800FDEEE77A17EE900A38BD00BF00807640C0
:101358000C00002010000020000020422DE9F04180
:101368002DED028BB0EE408AFFF700FEFFF720FE5E
:10137800B0EE480AFFF7C4FF071E2DDDFFF712FE87
:10138800804609E03346BB4224DAFFF70BFE0446E9
:10139800A0EB0803092B07D8114B1D88114B1E8899
:1013A800B542EFD92B46EEE70F4B1A68314628466F
:1013B800FFF7AEFE0120FFF739FE0220FFF768FEB7
:1013C8000A4B1878FFF71CFE094B1878FFF702FE46
:1013D800A046E1E7FFF78EFEBDEC028BBDE8F08189
:1013E8004A0000204800002014000020610000206E
:1013F80060000020DFF834D00D480E490E4A002363
:1014080002E0D458C4500433C4188C42F9D30B4AB0
:101418000B4C002301E013600432A242FBD3FFF718
:101428001BFB00F011F8FFF721FB704700000220BA
:101438000000002018000020B81400081800002040
:1014480064000020FEE7000070B50D4D0D4C641BD4
:10145800A4100026A64209D10B4D0C4C00F018F838
:10146800641BA4100026A64205D170BD55F8043BA4
:1014780098470136EEE755F8043B98470136F2E7FE
:10148800B0140008B0140008B0140008B414000820
:10149800F8B500BFF8BC08BC9E467047F8B500BF59
:0814A800F8BC08BC9E46704729
:0414B0003D0A0008E9
:0414B400150A00080D
:1014B8000000704200008C420000803FE5B63044D6
:0814C8000F344C434100000009
:04000005080013FDDF
:00000001FF
