:020000040800F2
:10000000000002207D0B0008CD0B0008CD0B00087E
:10001000CD0B0008CD0B0008CD0B00080000000040
:10002000000000000000000000000000CD0B0008F0
:10003000CD0B000800000000CD0B000815050008DE
:10004000CD0B0008CD0B0008CD0B0008CD0B000830
:10005000CD0B0008CD0B0008CD0B0008CD0B000820
:10006000CD0B0008CD0B0008CD0B0008CD0B000810
:10007000CD0B0008CD0B0008CD0B0008CD0B000800
:10008000CD0B0008CD0B0008CD0B000800000000D0
:10009000000000000000000000000000A9050008AA
:1000A000CD0B0008CD0B0008CD0B0008CD0B0008D0
:1000B000CD0B0008CD0B0008CD0B0008CD0B0008C0
:1000C000CD0B0008CD0B0008CD0B0008CD0B0008B0
:1000D000CD0B0008CD0B0008CD0B00080000000080
:1000E00025050008CD0B0008CD0B0008000000001E
:1000F000000000000000000000000000CD0B000820
:1001000000000000CD0B0008CD0B0008CD0B00084F
:1001100000000000000000000000000000000000DF
:10012000CD0B0008CD0B0008CD0B0008CD0B00084F
:10013000CD0B0008000000000000000000000000DF
:10014000000000000000000000000000CD0B0008CF
:10015000CD0B0008CD0B0008CD0B0008CD0B00081F
:10016000CD0B0008CD0B00080000000000000000CF
:10017000000000000000000000000000000000007F
:1001800000000000CD0B000800000000000000008F
:08019000CD0B0008CD0B0008A7
:100198000348044B834202D0034B03B1184770470E
:1001A8005400002054000020000000000548064BC1
:1001B8001B1AD90F01EBA301491002D0034B03B15D
:1001C8001847704754000020540000200000000029
:1001D80010B5064C237843B9FFF7DAFF044B13B187
:1001E8000448AFF300800123237010BD54000020A1
:1001F80000000000180C000808B5054B1BB10549A4
:100208000548AFF30080BDE80840FFF7CFBF00BF47
:100218000000000058000020180C0008034AD2F81B
:10022800883043F47003C2F88830704700ED00E06E
:1002380008B500F0A7F800F03DF800F097F800F0D6
:1002480021F900F04FF900F09DF800F08FF800F068
:1002580019F9064B1B78002BFBD09FED050A00F01F
:100268007FFC40F6B83000F0BFF9F2E770000020DC
:100278003333A74100B500F00700C0F1070CBCF10B
:10028800040F28BF4FF0040C031D062B0FD9C31E03
:100298004FF0FF3E0EFA0CF021EA000199400EFAE9
:1002A80003FE22EA0E0241EA02005DF804FB002385
:1002B800EEE700002B4A136B43F0020313632A4B4B
:1002C8001A6842F480121A605A6822F480625A60EE
:1002D8009A6842F480129A60DA6822F48012DA602E
:1002E8009A6942F080629A611A6842F480521A60F0
:1002F8005A6822F040025A609A6842F480529A6022
:10030800DA6822F48052DA609A6942F480029A61CB
:100318001A6842F480621A605A6822F020025A6011
:100328009A6842F480629A60DA6822F48062DA603D
:100338009A6942F400129A611A6842F480421A607B
:100348005A6822F080025A609A6842F480429A60A1
:10035800DA6822F48042DA609A6942F400029A610B
:10036800704700BF00380240000402404FF0E0230D
:10037800034A5A6100229A6107221A61704700BF36
:10038800FF7601002DE9F041394A136843F0010373
:100398001360374B1B6813F0020FFAD0344B41F649
:1003A80008025A601A6842F080721A60304B1B6863
:1003B80013F0007FFAD02F4C236843F48053236056
:1003C800A36843F48053A360DFF8B480D8F80C0026
:1003D80000221146C0F30220FFF74CFF0001C0B213
:1003E800254D85F828034FF480766E60234F3B69CE
:1003F80023F00F0343F002033B6123683343236078
:10040800A3683343A360E36843F48053E360D8F8F8
:100418000C0000221146C0F30220FFF72BFF000159
:10042800C0B285F817034FF400032B607B6923F0F3
:10043800F00343F020037B61236843F400532360F7
:10044800A36843F40053A360E36843F40053E360F4
:10045800D8F80C0000221146C0F30220FFF70AFF6B
:100468000001C0B285F828036E60BDE8F08100BFC6
:1004780000380240003C014000E100E00038014043
:1004880000ED00E0164B1A6B42F001021A635A6C39
:1004980042F001025A64A3F560531A6842F420221C
:1004A8001A605A6A42F011025A62A3F58033052293
:1004B8009A6240F2E732DA629A6942F4D04242F034
:1004C80068029A611A6A42F011021A625A6C42F47E
:1004D80000425A641A6842F001021A60704700BF6D
:1004E80000380240074A536C43F480435364064B78
:1004F8001A6942F002021A615A6942F002025A610C
:10050800704700BF0038024000380140024A1368B3
:1005180001331360704700BF780000201A4B5B69F5
:1005280013F4805F15D0194B1B6913F4805F0BD04F
:10053800174B1B6843B9174A13889BB201339BB208
:100548001380134B01221A600F4A536943F48053F6
:1005580053610D4B5B6913F4005F14D00B4B1B699F
:1005680013F4005F0AD00C4B1B883BB90A4B64227A
:100578001A800A4A137883F001031370024A5369F8
:1005880043F4005353617047003C014000080240A7
:100598007C000020840000207200002070000020F1
:1005A8000B4B5B6913F4807F10D00A4B1B6843B96F
:1005B800094A13889BB201339BB21380054B012271
:1005C8001A60034A536943F480735361704700BF4C
:1005D800003C01408000002086000020014B186884
:1005E800704700BF74000020034B1A68024B1B6859
:1005F8009B1A8342FAD3704778000020B4EEE00AD1
:10060800F1EE10FA05D4B4EEC10AF1EE10FA03DCEB
:100618007047B0EE600A7047B0EE410A70470000BC
:10062800642800D9642007494A6B6FF30F02CB6A2C
:1006380013FB00F39BB20448A0FB030342EA5313E5
:100648004B637047000001401F85EB51642800D9B7
:100658006420074A936B6FF30F03D16A01FB00F024
:100668000449A1FB001043EA50139363704700BF8D
:10067800000001401F85EB51034630B9084A4FF08E
:1006880088619161022B06D070470128FAD1044B8A
:10069800044A9A617047024B034A9A61F4E700BF23
:1006A800000402400004400040000004034630B942
:1006B800084A4FF420019161022B06D070470128A7
:1006C800FAD1044B044A9A617047024B034A9A6173
:1006D800F4E700BF000402402000800080002000F2
:1006E80008B50020FFF7C8FF0020FFF7DFFF002054
:1006F800FFF7ACFF0020FFF793FF08BD10B52DED05
:10070800028B0446B0EE408AF0EE608A90ED030A50
:1007180068EE207A30EE270A80ED030A9FED111A61
:10072800DFED110AFFF76AFF84ED030AD4ED047ABE
:1007380078EE677A87EEA87A84ED048AD4ED007A99
:1007480067EE887AD4ED016A20EE260A77EE807A81
:1007580094ED020A20EE070A37EE800ABDEC028B00
:1007680010BD00BF0000C8420000C8C24FF0000C16
:10077800C0F80CC0C0F810C0C1F80CC0C1F810C057
:10078800C2F80CC0C2F810C0C3F80CC0C3F810C03F
:10079800704700230365436500228265C26509E04E
:1007A80000EB83020021116003F10A0200EB8202D0
:1007B80011600133092BF3DD70470000416D0929F1
:1007C80015DDD0ED167A036D00EB830292ED007A09
:1007D80077EEC77AC0ED167AD0ED177A0A3300EBB8
:1007E800830393ED007A77EEC77AC0ED177A026D2E
:1007F80000EB820383ED000A02F10A0300EB830396
:10080800C3ED000AD0ED167A77EE807AC0ED167A3D
:10081800D0ED177A77EEA07AC0ED177A0132084B3F
:1008280083FB023CD317C3EBAC0303EB8303A2EBBC
:1008380043030365092901DC01314165704700BFA5
:1008480067666666436D5BB1D0ED177AF5EE407A60
:10085800F1EE10FA07D090ED167A87EE270A704766
:100868009FED020A70479FED010A704700000000E3
:100878002DE9F0432DED028B83B0074688461646D6
:100888000025914B1D80914B1D80914B1A60914B17
:100898001D60914B1D60914B1D60914B1D609148EF
:1008A800FFF777FF9048FFF774FFFFF797FE814641
:1008B80069E0F0EE680AB0EE480A8B48FFF77EFF61
:1008C80093E09FED8A0A8A4B83ED000A814B1B68EF
:1008D800814A1268134403EBD3735B10854A136093
:1008E800F31A854A136025B9844A1268934240F383
:1008F8008980814B1B685A1C022A40F2CB80F0EE9B
:10090800680A07EE903AB8EEE70A7D48FFF7F6FE68
:100918009FED7C1ADFED7C0AFFF770FE7B4B83EDC1
:10092800000A7B4BD3ED007AF0EE680A30EE670AD6
:100938007848FFF7E3FE784B83ED000A002D66D078
:100948009FED6A8A002D72D0DFF8CC919FED6D1A69
:10095800DFED720A99ED000AFFF750FE89ED000AF3
:100968003846FFF789FED9ED007AFCEEE77ACDED3F
:10097800017A9DF80400FFF769FE002D6FD0684BDF
:1009880000221A60A146FFF729FE0446A0EB0903DE
:10099800092BF8D907EE903AF8EE677A9FED617A5D
:1009A800C7EE878A484B19884A4B1960474B1A8803
:1009B800494B1A60DFF824C1DCF80030CB1A00EE8E
:1009C800103A47480368D31A07EE903AB8EEE78A18
:1009D800CCF800100260F0EE680AB8EEC00A414890
:1009E800FFF7ECFE002D3FF464AF3E48FFF72AFF07
:1009F800474B83ED000A002D7FF463AF3A48FFF7B9
:100A080021FF60E70020FFF70BFE012571E73F4B50
:100A180093ED000A364BD3ED007AF0EE680A30EE1B
:100A2800670A4148FFF76AFEB0EE408A8AE7294B19
:100A38001B68294A12689B1A00EE103AF0EE680A01
:100A4800B8EEC00A3948FFF759FE38EE008A324B33
:100A5800D3ED007A77EEC07AC3ED007A74E79FEDA4
:100A6800291ADFED2E0AB0EE480AFFF7C7FDDFF8B6
:100A7800B09089ED000A4046FFF718FED9ED007ADC
:100A8800FCEEE77ACDED017A9DF80400FFF7C8FD8A
:100A9800A14678E700231E4A13601F4A1360144AD0
:100AA80013601F4A1360224A1360184A13601F4BD1
:100AB800134A1D491748FFF759FEFFF711FE03B007
:100AC800BDEC028BBDE8F083860000208400002086
:100AD80074010020700100206C01002068010020D2
:100AE80064010020EC0000208C00002000000000C1
:100AF80058010020780100207C0100208800002097
:100B08003C00002000008242000082C260010020F8
:100B18005C010020280000205401002000006C42E5
:100B28005001002000007A4414000020000000203A
:100B38004C010020F2EE047A20EE270A064B93EDD2
:100B4800007AC0EE077A9FED057A67EE877AFCEEA9
:100B5800E77A17EE900A7047500000200000204204
:100B680008B5FFF7E7FF024601210846FFF780FEB8
:100B780008BD0000DFF834D00D480E490E4A0023A6
:100B880002E0D458C4500433C4188C42F9D30B4A39
:100B98000B4C002301E013600432A242FBD3FFF7A1
:100BA8003DFB00F011F8FFF743FB704700000220FF
:100BB8000000002054000020380C000854000020D9
:100BC80080010020FEE7000070B50D4D0D4C641B40
:100BD800A4100026A64209D10B4D0C4C00F018F8C1
:100BE800641BA4100026A64205D170BD55F8043B2D
:100BF80098470136EEE755F8043B98470136F2E787
:100C0800300C0008300C0008300C0008340C0008C8
:100C1800F8B500BFF8BC08BC9E467047F8B500BFE1
:080C2800F8BC08BC9E467047B1
:040C300001020008B5
:040C3400D9010008DA
:100C38000000A040000000000000003F000000008D
:100C480000000000000020410000003F00000040BC
:100C58000000000000000000000020410000003FEC
:100C680000000040000000000000000000000040FC
:100C7800000000000000000000000000000000006C
:040C88006EEA50437D
:0400000508000B7D67
:00000001FF
